{
  "_format": "hh-sol-artifact-1",
  "contractName": "Domains",
  "sourceName": "contracts/Domains.sol",
  "abi": [
    {
      "inputs": [
        {
          "internalType": "string",
          "name": "_tld",
          "type": "string"
        }
      ],
      "stateMutability": "payable",
      "type": "constructor"
    },
    {
      "inputs": [],
      "name": "AlreadyRegistered",
      "type": "error"
    },
    {
      "inputs": [
        {
          "internalType": "string",
          "name": "name",
          "type": "string"
        }
      ],
      "name": "InvalidName",
      "type": "error"
    },
    {
      "inputs": [],
      "name": "Unauthorized",
      "type": "error"
    },
    {
      "anonymous": false,
      "inputs": [
        {
          "indexed": true,
          "internalType": "address",
          "name": "owner",
          "type": "address"
        },
        {
          "indexed": true,
          "internalType": "address",
          "name": "approved",
          "type": "address"
        },
        {
          "indexed": true,
          "internalType": "uint256",
          "name": "tokenId",
          "type": "uint256"
        }
      ],
      "name": "Approval",
      "type": "event"
    },
    {
      "anonymous": false,
      "inputs": [
        {
          "indexed": true,
          "internalType": "address",
          "name": "owner",
          "type": "address"
        },
        {
          "indexed": true,
          "internalType": "address",
          "name": "operator",
          "type": "address"
        },
        {
          "indexed": false,
          "internalType": "bool",
          "name": "approved",
          "type": "bool"
        }
      ],
      "name": "ApprovalForAll",
      "type": "event"
    },
    {
      "anonymous": false,
      "inputs": [
        {
          "indexed": true,
          "internalType": "address",
          "name": "from",
          "type": "address"
        },
        {
          "indexed": true,
          "internalType": "address",
          "name": "to",
          "type": "address"
        },
        {
          "indexed": true,
          "internalType": "uint256",
          "name": "tokenId",
          "type": "uint256"
        }
      ],
      "name": "Transfer",
      "type": "event"
    },
    {
      "inputs": [
        {
          "internalType": "address",
          "name": "to",
          "type": "address"
        },
        {
          "internalType": "uint256",
          "name": "tokenId",
          "type": "uint256"
        }
      ],
      "name": "approve",
      "outputs": [],
      "stateMutability": "nonpayable",
      "type": "function"
    },
    {
      "inputs": [
        {
          "internalType": "address",
          "name": "owner",
          "type": "address"
        }
      ],
      "name": "balanceOf",
      "outputs": [
        {
          "internalType": "uint256",
          "name": "",
          "type": "uint256"
        }
      ],
      "stateMutability": "view",
      "type": "function"
    },
    {
      "inputs": [
        {
          "internalType": "string",
          "name": "",
          "type": "string"
        }
      ],
      "name": "domains",
      "outputs": [
        {
          "internalType": "address",
          "name": "",
          "type": "address"
        }
      ],
      "stateMutability": "view",
      "type": "function"
    },
    {
      "inputs": [
        {
          "internalType": "string",
          "name": "name",
          "type": "string"
        }
      ],
      "name": "getAddress",
      "outputs": [
        {
          "internalType": "address",
          "name": "",
          "type": "address"
        }
      ],
      "stateMutability": "view",
      "type": "function"
    },
    {
      "inputs": [],
      "name": "getAllNames",
      "outputs": [
        {
          "internalType": "string[]",
          "name": "",
          "type": "string[]"
        }
      ],
      "stateMutability": "view",
      "type": "function"
    },
    {
      "inputs": [
        {
          "internalType": "uint256",
          "name": "tokenId",
          "type": "uint256"
        }
      ],
      "name": "getApproved",
      "outputs": [
        {
          "internalType": "address",
          "name": "",
          "type": "address"
        }
      ],
      "stateMutability": "view",
      "type": "function"
    },
    {
      "inputs": [],
      "name": "getCurrentCount",
      "outputs": [
        {
          "internalType": "uint256",
          "name": "",
          "type": "uint256"
        }
      ],
      "stateMutability": "view",
      "type": "function"
    },
    {
      "inputs": [
        {
          "internalType": "string",
          "name": "name",
          "type": "string"
        }
      ],
      "name": "getRecord",
      "outputs": [
        {
          "internalType": "string",
          "name": "",
          "type": "string"
        }
      ],
      "stateMutability": "view",
      "type": "function"
    },
    {
      "inputs": [
        {
          "internalType": "address",
          "name": "owner",
          "type": "address"
        },
        {
          "internalType": "address",
          "name": "operator",
          "type": "address"
        }
      ],
      "name": "isApprovedForAll",
      "outputs": [
        {
          "internalType": "bool",
          "name": "",
          "type": "bool"
        }
      ],
      "stateMutability": "view",
      "type": "function"
    },
    {
      "inputs": [],
      "name": "isOwner",
      "outputs": [
        {
          "internalType": "bool",
          "name": "",
          "type": "bool"
        }
      ],
      "stateMutability": "view",
      "type": "function"
    },
    {
      "inputs": [],
      "name": "name",
      "outputs": [
        {
          "internalType": "string",
          "name": "",
          "type": "string"
        }
      ],
      "stateMutability": "view",
      "type": "function"
    },
    {
      "inputs": [
        {
          "internalType": "uint256",
          "name": "",
          "type": "uint256"
        }
      ],
      "name": "names",
      "outputs": [
        {
          "internalType": "string",
          "name": "",
          "type": "string"
        }
      ],
      "stateMutability": "view",
      "type": "function"
    },
    {
      "inputs": [],
      "name": "owner",
      "outputs": [
        {
          "internalType": "address payable",
          "name": "",
          "type": "address"
        }
      ],
      "stateMutability": "view",
      "type": "function"
    },
    {
      "inputs": [
        {
          "internalType": "uint256",
          "name": "tokenId",
          "type": "uint256"
        }
      ],
      "name": "ownerOf",
      "outputs": [
        {
          "internalType": "address",
          "name": "",
          "type": "address"
        }
      ],
      "stateMutability": "view",
      "type": "function"
    },
    {
      "inputs": [
        {
          "internalType": "string",
          "name": "name",
          "type": "string"
        }
      ],
      "name": "price",
      "outputs": [
        {
          "internalType": "uint256",
          "name": "",
          "type": "uint256"
        }
      ],
      "stateMutability": "pure",
      "type": "function"
    },
    {
      "inputs": [
        {
          "internalType": "string",
          "name": "",
          "type": "string"
        }
      ],
      "name": "records",
      "outputs": [
        {
          "internalType": "string",
          "name": "",
          "type": "string"
        }
      ],
      "stateMutability": "view",
      "type": "function"
    },
    {
      "inputs": [
        {
          "internalType": "string",
          "name": "name",
          "type": "string"
        }
      ],
      "name": "register",
      "outputs": [],
      "stateMutability": "payable",
      "type": "function"
    },
    {
      "inputs": [
        {
          "internalType": "address",
          "name": "from",
          "type": "address"
        },
        {
          "internalType": "address",
          "name": "to",
          "type": "address"
        },
        {
          "internalType": "uint256",
          "name": "tokenId",
          "type": "uint256"
        }
      ],
      "name": "safeTransferFrom",
      "outputs": [],
      "stateMutability": "nonpayable",
      "type": "function"
    },
    {
      "inputs": [
        {
          "internalType": "address",
          "name": "from",
          "type": "address"
        },
        {
          "internalType": "address",
          "name": "to",
          "type": "address"
        },
        {
          "internalType": "uint256",
          "name": "tokenId",
          "type": "uint256"
        },
        {
          "internalType": "bytes",
          "name": "data",
          "type": "bytes"
        }
      ],
      "name": "safeTransferFrom",
      "outputs": [],
      "stateMutability": "nonpayable",
      "type": "function"
    },
    {
      "inputs": [
        {
          "internalType": "address",
          "name": "operator",
          "type": "address"
        },
        {
          "internalType": "bool",
          "name": "approved",
          "type": "bool"
        }
      ],
      "name": "setApprovalForAll",
      "outputs": [],
      "stateMutability": "nonpayable",
      "type": "function"
    },
    {
      "inputs": [
        {
          "internalType": "string",
          "name": "name",
          "type": "string"
        },
        {
          "internalType": "string",
          "name": "record",
          "type": "string"
        }
      ],
      "name": "setRecord",
      "outputs": [],
      "stateMutability": "nonpayable",
      "type": "function"
    },
    {
      "inputs": [
        {
          "internalType": "bytes4",
          "name": "interfaceId",
          "type": "bytes4"
        }
      ],
      "name": "supportsInterface",
      "outputs": [
        {
          "internalType": "bool",
          "name": "",
          "type": "bool"
        }
      ],
      "stateMutability": "view",
      "type": "function"
    },
    {
      "inputs": [],
      "name": "symbol",
      "outputs": [
        {
          "internalType": "string",
          "name": "",
          "type": "string"
        }
      ],
      "stateMutability": "view",
      "type": "function"
    },
    {
      "inputs": [],
      "name": "tld",
      "outputs": [
        {
          "internalType": "string",
          "name": "",
          "type": "string"
        }
      ],
      "stateMutability": "view",
      "type": "function"
    },
    {
      "inputs": [
        {
          "internalType": "uint256",
          "name": "tokenId",
          "type": "uint256"
        }
      ],
      "name": "tokenURI",
      "outputs": [
        {
          "internalType": "string",
          "name": "",
          "type": "string"
        }
      ],
      "stateMutability": "view",
      "type": "function"
    },
    {
      "inputs": [
        {
          "internalType": "address",
          "name": "from",
          "type": "address"
        },
        {
          "internalType": "address",
          "name": "to",
          "type": "address"
        },
        {
          "internalType": "uint256",
          "name": "tokenId",
          "type": "uint256"
        }
      ],
      "name": "transferFrom",
      "outputs": [],
      "stateMutability": "nonpayable",
      "type": "function"
    },
    {
      "inputs": [
        {
          "internalType": "string",
          "name": "name",
          "type": "string"
        }
      ],
      "name": "valid",
      "outputs": [
        {
          "internalType": "bool",
          "name": "",
          "type": "bool"
        }
      ],
      "stateMutability": "pure",
      "type": "function"
    },
    {
      "inputs": [],
      "name": "withdraw",
      "outputs": [],
      "stateMutability": "nonpayable",
      "type": "function"
    }
  ],
  "bytecode": "0x6080604052604051806108a0016040528061086b81526020016200537f61086b9139600a908051906020019062000038929190620002c8565b506040518060400160405280600d81526020017f3c2f746578743e3c2f7376673e00000000000000000000000000000000000000815250600b908051906020019062000086929190620002c8565b5060405162005bea38038062005bea8339818101604052810190620000ac919062000515565b6040518060400160405280601281526020017f436c6f7564204e616d65205365727669636500000000000000000000000000008152506040518060400160405280600381526020017f434e530000000000000000000000000000000000000000000000000000000000815250816000908051906020019062000130929190620002c8565b50806001908051906020019062000149929190620002c8565b50505033600860006101000a81548173ffffffffffffffffffffffffffffffffffffffff021916908373ffffffffffffffffffffffffffffffffffffffff1602179055508060099080519060200190620001a5929190620002c8565b50620001f26040518060400160405280601881526020017f2573206e616d652073657276696365206465706c6f796564000000000000000081525082620001f960201b62001b631760201c565b5062000663565b6200029b828260405160240162000212929190620005c3565b6040516020818303038152906040527f4b5c4277000000000000000000000000000000000000000000000000000000007bffffffffffffffffffffffffffffffffffffffffffffffffffffffff19166020820180517bffffffffffffffffffffffffffffffffffffffffffffffffffffffff83818316178352505050506200029f60201b60201c565b5050565b60008151905060006a636f6e736f6c652e6c6f679050602083016000808483855afa5050505050565b828054620002d6906200062d565b90600052602060002090601f016020900481019282620002fa576000855562000346565b82601f106200031557805160ff191683800117855562000346565b8280016001018555821562000346579182015b828111156200034557825182559160200191906001019062000328565b5b50905062000355919062000359565b5090565b5b80821115620003745760008160009055506001016200035a565b5090565b6000604051905090565b600080fd5b600080fd5b600080fd5b600080fd5b6000601f19601f8301169050919050565b7f4e487b7100000000000000000000000000000000000000000000000000000000600052604160045260246000fd5b620003e18262000396565b810181811067ffffffffffffffff82111715620004035762000402620003a7565b5b80604052505050565b60006200041862000378565b9050620004268282620003d6565b919050565b600067ffffffffffffffff821115620004495762000448620003a7565b5b620004548262000396565b9050602081019050919050565b60005b838110156200048157808201518184015260208101905062000464565b8381111562000491576000848401525b50505050565b6000620004ae620004a8846200042b565b6200040c565b905082815260208101848484011115620004cd57620004cc62000391565b5b620004da84828562000461565b509392505050565b600082601f830112620004fa57620004f96200038c565b5b81516200050c84826020860162000497565b91505092915050565b6000602082840312156200052e576200052d62000382565b5b600082015167ffffffffffffffff8111156200054f576200054e62000387565b5b6200055d84828501620004e2565b91505092915050565b600081519050919050565b600082825260208201905092915050565b60006200058f8262000566565b6200059b818562000571565b9350620005ad81856020860162000461565b620005b88162000396565b840191505092915050565b60006040820190508181036000830152620005df818562000582565b90508181036020830152620005f5818462000582565b90509392505050565b7f4e487b7100000000000000000000000000000000000000000000000000000000600052602260045260246000fd5b600060028204905060018216806200064657607f821691505b602082108114156200065d576200065c620005fe565b5b50919050565b614d0c80620006736000396000f3fe6080604052600436106101b75760003560e01c80638da5cb5b116100ec578063c1880a981161008a578063e985e9c511610064578063e985e9c51461066a578063f2c298be146106a7578063fb825e5f146106c3578063fe2c6198146106ee576101b7565b8063c1880a98146105d9578063c87b56dd14610602578063dd51babf1461063f576101b7565b80639791c097116100c65780639791c0971461050d578063a22cb4651461054a578063b88d4fde14610573578063bf40fac11461059c576101b7565b80638da5cb5b1461048c5780638f32d59b146104b757806395d89b41146104e2576101b7565b80632d551432116101595780634622ab03116101335780634622ab0314610398578063541e771d146103d55780636352211e1461041257806370a082311461044f576101b7565b80632d5514321461032d5780633ccfd60b1461035857806342842e0e1461036f576101b7565b8063095ea7b311610195578063095ea7b31461026157806311dd88451461028a57806323b872dd146102c757806326449235146102f0576101b7565b806301ffc9a7146101bc57806306fdde03146101f9578063081812fc14610224575b600080fd5b3480156101c857600080fd5b506101e360048036038101906101de919061334b565b61072b565b6040516101f09190613393565b60405180910390f35b34801561020557600080fd5b5061020e61080d565b60405161021b9190613447565b60405180910390f35b34801561023057600080fd5b5061024b6004803603810190610246919061349f565b61089f565b604051610258919061350d565b60405180910390f35b34801561026d57600080fd5b5061028860048036038101906102839190613554565b6108e5565b005b34801561029657600080fd5b506102b160048036038101906102ac91906135f9565b6109fd565b6040516102be9190613447565b60405180910390f35b3480156102d357600080fd5b506102ee60048036038101906102e99190613646565b610ab0565b005b3480156102fc57600080fd5b50610317600480360381019061031291906137c9565b610b10565b604051610324919061350d565b60405180910390f35b34801561033957600080fd5b50610342610b59565b60405161034f9190613447565b60405180910390f35b34801561036457600080fd5b5061036d610be7565b005b34801561037b57600080fd5b5061039660048036038101906103919190613646565b610cad565b005b3480156103a457600080fd5b506103bf60048036038101906103ba919061349f565b610ccd565b6040516103cc9190613447565b60405180910390f35b3480156103e157600080fd5b506103fc60048036038101906103f791906137c9565b610d6d565b6040516104099190613447565b60405180910390f35b34801561041e57600080fd5b506104396004803603810190610434919061349f565b610e23565b604051610446919061350d565b60405180910390f35b34801561045b57600080fd5b5061047660048036038101906104719190613812565b610eaa565b604051610483919061384e565b60405180910390f35b34801561049857600080fd5b506104a1610f62565b6040516104ae919061388a565b60405180910390f35b3480156104c357600080fd5b506104cc610f88565b6040516104d99190613393565b60405180910390f35b3480156104ee57600080fd5b506104f7610fe0565b6040516105049190613447565b60405180910390f35b34801561051957600080fd5b50610534600480360381019061052f91906135f9565b611072565b6040516105419190613393565b60405180910390f35b34801561055657600080fd5b50610571600480360381019061056c91906138d1565b611126565b005b34801561057f57600080fd5b5061059a600480360381019061059591906139b2565b61113c565b005b3480156105a857600080fd5b506105c360048036038101906105be91906135f9565b61119e565b6040516105d0919061350d565b60405180910390f35b3480156105e557600080fd5b5061060060048036038101906105fb9190613a35565b6111e9565b005b34801561060e57600080fd5b506106296004803603810190610624919061349f565b6112c4565b6040516106369190613447565b60405180910390f35b34801561064b57600080fd5b506106546113d7565b604051610661919061384e565b60405180910390f35b34801561067657600080fd5b50610691600480360381019061068c9190613ab6565b6113e8565b60405161069e9190613393565b60405180910390f35b6106c160048036038101906106bc91906135f9565b61147c565b005b3480156106cf57600080fd5b506106d86118e0565b6040516106e59190613c02565b60405180910390f35b3480156106fa57600080fd5b50610715600480360381019061071091906135f9565b611abe565b604051610722919061384e565b60405180910390f35b60007f80ac58cd000000000000000000000000000000000000000000000000000000007bffffffffffffffffffffffffffffffffffffffffffffffffffffffff1916827bffffffffffffffffffffffffffffffffffffffffffffffffffffffff191614806107f657507f5b5e139f000000000000000000000000000000000000000000000000000000007bffffffffffffffffffffffffffffffffffffffffffffffffffffffff1916827bffffffffffffffffffffffffffffffffffffffffffffffffffffffff1916145b80610806575061080582611bff565b5b9050919050565b60606000805461081c90613c53565b80601f016020809104026020016040519081016040528092919081815260200182805461084890613c53565b80156108955780601f1061086a57610100808354040283529160200191610895565b820191906000526020600020905b81548152906001019060200180831161087857829003601f168201915b5050505050905090565b60006108aa82611c69565b6004600083815260200190815260200160002060009054906101000a900473ffffffffffffffffffffffffffffffffffffffff169050919050565b60006108f082610e23565b90508073ffffffffffffffffffffffffffffffffffffffff168373ffffffffffffffffffffffffffffffffffffffff161415610961576040517f08c379a000000000000000000000000000000000000000000000000000000000815260040161095890613cf7565b60405180910390fd5b8073ffffffffffffffffffffffffffffffffffffffff16610980611cb4565b73ffffffffffffffffffffffffffffffffffffffff1614806109af57506109ae816109a9611cb4565b6113e8565b5b6109ee576040517f08c379a00000000000000000000000000000000000000000000000000000000081526004016109e590613d89565b60405180910390fd5b6109f88383611cbc565b505050565b6060600d8383604051610a11929190613dd9565b90815260200160405180910390208054610a2a90613c53565b80601f0160208091040260200160405190810160405280929190818152602001828054610a5690613c53565b8015610aa35780601f10610a7857610100808354040283529160200191610aa3565b820191906000526020600020905b815481529060010190602001808311610a8657829003601f168201915b5050505050905092915050565b610ac1610abb611cb4565b82611d75565b610b00576040517f08c379a0000000000000000000000000000000000000000000000000000000008152600401610af790613e64565b60405180910390fd5b610b0b838383611e0a565b505050565b600c818051602081018201805184825260208301602085012081835280955050505050506000915054906101000a900473ffffffffffffffffffffffffffffffffffffffff1681565b60098054610b6690613c53565b80601f0160208091040260200160405190810160405280929190818152602001828054610b9290613c53565b8015610bdf5780601f10610bb457610100808354040283529160200191610bdf565b820191906000526020600020905b815481529060010190602001808311610bc257829003601f168201915b505050505081565b610bef610f88565b610bf857600080fd5b600047905060003373ffffffffffffffffffffffffffffffffffffffff1682604051610c2390613eb5565b60006040518083038185875af1925050503d8060008114610c60576040519150601f19603f3d011682016040523d82523d6000602084013e610c65565b606091505b5050905080610ca9576040517f08c379a0000000000000000000000000000000000000000000000000000000008152600401610ca090613f16565b60405180910390fd5b5050565b610cc88383836040518060200160405280600081525061113c565b505050565b600e6020528060005260406000206000915090508054610cec90613c53565b80601f0160208091040260200160405190810160405280929190818152602001828054610d1890613c53565b8015610d655780601f10610d3a57610100808354040283529160200191610d65565b820191906000526020600020905b815481529060010190602001808311610d4857829003601f168201915b505050505081565b600d818051602081018201805184825260208301602085012081835280955050505050506000915090508054610da290613c53565b80601f0160208091040260200160405190810160405280929190818152602001828054610dce90613c53565b8015610e1b5780601f10610df057610100808354040283529160200191610e1b565b820191906000526020600020905b815481529060010190602001808311610dfe57829003601f168201915b505050505081565b600080610e2f83612104565b9050600073ffffffffffffffffffffffffffffffffffffffff168173ffffffffffffffffffffffffffffffffffffffff161415610ea1576040517f08c379a0000000000000000000000000000000000000000000000000000000008152600401610e9890613f82565b60405180910390fd5b80915050919050565b60008073ffffffffffffffffffffffffffffffffffffffff168273ffffffffffffffffffffffffffffffffffffffff161415610f1b576040517f08c379a0000000000000000000000000000000000000000000000000000000008152600401610f1290614014565b60405180910390fd5b600360008373ffffffffffffffffffffffffffffffffffffffff1673ffffffffffffffffffffffffffffffffffffffff168152602001908152602001600020549050919050565b600860009054906101000a900473ffffffffffffffffffffffffffffffffffffffff1681565b6000600860009054906101000a900473ffffffffffffffffffffffffffffffffffffffff1673ffffffffffffffffffffffffffffffffffffffff163373ffffffffffffffffffffffffffffffffffffffff1614905090565b606060018054610fef90613c53565b80601f016020809104026020016040519081016040528092919081815260200182805461101b90613c53565b80156110685780601f1061103d57610100808354040283529160200191611068565b820191906000526020600020905b81548152906001019060200180831161104b57829003601f168201915b5050505050905090565b600060036110c384848080601f016020809104026020016040519081016040528093929190818152602001838380828437600081840152601f19601f82011690508083019250505050505050612141565b1015801561111e5750600b61111b84848080601f016020809104026020016040519081016040528093929190818152602001838380828437600081840152601f19601f82011690508083019250505050505050612141565b11155b905092915050565b611138611131611cb4565b83836122f6565b5050565b61114d611147611cb4565b83611d75565b61118c576040517f08c379a000000000000000000000000000000000000000000000000000000000815260040161118390613e64565b60405180910390fd5b61119884848484612463565b50505050565b6000600c83836040516111b2929190613dd9565b908152602001604051809103902060009054906101000a900473ffffffffffffffffffffffffffffffffffffffff16905092915050565b600c84846040516111fb929190613dd9565b908152602001604051809103902060009054906101000a900473ffffffffffffffffffffffffffffffffffffffff1673ffffffffffffffffffffffffffffffffffffffff163373ffffffffffffffffffffffffffffffffffffffff161461128e576040517f82b4290000000000000000000000000000000000000000000000000000000000815260040160405180910390fd5b8181600d86866040516112a2929190613dd9565b908152602001604051809103902091906112bd9291906131b6565b5050505050565b60606112cf82611c69565b60006006600084815260200190815260200160002080546112ef90613c53565b80601f016020809104026020016040519081016040528092919081815260200182805461131b90613c53565b80156113685780601f1061133d57610100808354040283529160200191611368565b820191906000526020600020905b81548152906001019060200180831161134b57829003601f168201915b5050505050905060006113796124bf565b905060008151141561138f5781925050506113d2565b6000825111156113c45780826040516020016113ac929190614065565b604051602081830303815290604052925050506113d2565b6113cd846124d6565b925050505b919050565b60006113e3600761253e565b905090565b6000600560008473ffffffffffffffffffffffffffffffffffffffff1673ffffffffffffffffffffffffffffffffffffffff16815260200190815260200160002060008373ffffffffffffffffffffffffffffffffffffffff1673ffffffffffffffffffffffffffffffffffffffff16815260200190815260200160002060009054906101000a900460ff16905092915050565b600073ffffffffffffffffffffffffffffffffffffffff16600c83836040516114a6929190613dd9565b908152602001604051809103902060009054906101000a900473ffffffffffffffffffffffffffffffffffffffff1673ffffffffffffffffffffffffffffffffffffffff1614611522576040517f3a81d6fc00000000000000000000000000000000000000000000000000000000815260040160405180910390fd5b61152c8282611072565b61156f5781816040517f7f19f48d0000000000000000000000000000000000000000000000000000000081526004016115669291906140b6565b60405180910390fd5b600061157b8383611abe565b9050803410156115c0576040517f08c379a00000000000000000000000000000000000000000000000000000000081526004016115b790614126565b60405180910390fd5b6000838360096040516020016115d893929190614226565b60405160208183030381529060405290506000600a82600b60405160200161160293929190614257565b6040516020818303038152906040529050600061161f600761253e565b9050600061167087878080601f016020809104026020016040519081016040528093929190818152602001838380828437600081840152601f19601f82011690508083019250505050505050612141565b9050600061167d8261254c565b9050611771604051806060016040528060318152602001614c456031913989898080601f016020809104026020016040519081016040528093929190818152602001838380828437600081840152601f19601f82011690508083019250505050505050600980546116ed90613c53565b80601f016020809104026020016040519081016040528092919081815260200182805461171990613c53565b80156117665780601f1061173b57610100808354040283529160200191611766565b820191906000526020600020905b81548152906001019060200180831161174957829003601f168201915b505050505086612624565b60006117a786611780876126c6565b8460405160200161179393929190614404565b6040516020818303038152906040526126c6565b90506000816040516020016117bc91906144ad565b60405160208183030381529060405290506117d7338661282a565b6117e18582612848565b33600c8b8b6040516117f4929190613dd9565b908152602001604051809103902060006101000a81548173ffffffffffffffffffffffffffffffffffffffff021916908373ffffffffffffffffffffffffffffffffffffffff1602179055506118a7604051806060016040528060218152602001614cb660219139338c8c8080601f016020809104026020016040519081016040528093929190818152602001838380828437600081840152601f19601f820116905080830192505050505050506128bc565b8989600e600088815260200190815260200160002091906118c99291906131b6565b506118d4600761295b565b50505050505050505050565b60606119206040518060400160405280601f81526020017f47657474696e6720616c6c206e616d65732066726f6d20636f6e747261637400815250612971565b600061192c600761253e565b67ffffffffffffffff8111156119455761194461369e565b5b60405190808252806020026020018201604052801561197857816020015b60608152602001906001900390816119635790505b50905060005b611988600761253e565b811015611ab657600e600082815260200190815260200160002080546119ad90613c53565b80601f01602080910402602001604051908101604052809291908181526020018280546119d990613c53565b8015611a265780601f106119fb57610100808354040283529160200191611a26565b820191906000526020600020905b815481529060010190602001808311611a0957829003601f168201915b5050505050828281518110611a3e57611a3d6144cf565b5b6020026020010181905250611aa36040518060400160405280601781526020017f4e616d6520666f7220746f6b656e20256420697320257300000000000000000081525082848481518110611a9657611a956144cf565b5b6020026020010151612a0a565b8080611aae9061452d565b91505061197e565b508091505090565b600080611b0e84848080601f016020809104026020016040519081016040528093929190818152602001838380828437600081840152601f19601f82011690508083019250505050505050612141565b905060008111611b1d57600080fd5b6003811415611b375767058d15e176280000915050611b5d565b6004811415611b51576702c68af0bb140000915050611b5d565b662386f26fc100009150505b92915050565b611bfb8282604051602401611b79929190614576565b6040516020818303038152906040527f4b5c4277000000000000000000000000000000000000000000000000000000007bffffffffffffffffffffffffffffffffffffffffffffffffffffffff19166020820180517bffffffffffffffffffffffffffffffffffffffffffffffffffffffff8381831617835250505050612aa9565b5050565b60007f01ffc9a7000000000000000000000000000000000000000000000000000000007bffffffffffffffffffffffffffffffffffffffffffffffffffffffff1916827bffffffffffffffffffffffffffffffffffffffffffffffffffffffff1916149050919050565b611c7281612ad2565b611cb1576040517f08c379a0000000000000000000000000000000000000000000000000000000008152600401611ca890613f82565b60405180910390fd5b50565b600033905090565b816004600083815260200190815260200160002060006101000a81548173ffffffffffffffffffffffffffffffffffffffff021916908373ffffffffffffffffffffffffffffffffffffffff160217905550808273ffffffffffffffffffffffffffffffffffffffff16611d2f83610e23565b73ffffffffffffffffffffffffffffffffffffffff167f8c5be1e5ebec7d5bd14f71427d1e84f3dd0314c0f7b2291e5b200ac8c7c3b92560405160405180910390a45050565b600080611d8183610e23565b90508073ffffffffffffffffffffffffffffffffffffffff168473ffffffffffffffffffffffffffffffffffffffff161480611dc35750611dc281856113e8565b5b80611e0157508373ffffffffffffffffffffffffffffffffffffffff16611de98461089f565b73ffffffffffffffffffffffffffffffffffffffff16145b91505092915050565b8273ffffffffffffffffffffffffffffffffffffffff16611e2a82610e23565b73ffffffffffffffffffffffffffffffffffffffff1614611e80576040517f08c379a0000000000000000000000000000000000000000000000000000000008152600401611e779061461f565b60405180910390fd5b600073ffffffffffffffffffffffffffffffffffffffff168273ffffffffffffffffffffffffffffffffffffffff161415611ef0576040517f08c379a0000000000000000000000000000000000000000000000000000000008152600401611ee7906146b1565b60405180910390fd5b611efd8383836001612b13565b8273ffffffffffffffffffffffffffffffffffffffff16611f1d82610e23565b73ffffffffffffffffffffffffffffffffffffffff1614611f73576040517f08c379a0000000000000000000000000000000000000000000000000000000008152600401611f6a9061461f565b60405180910390fd5b6004600082815260200190815260200160002060006101000a81549073ffffffffffffffffffffffffffffffffffffffff02191690556001600360008573ffffffffffffffffffffffffffffffffffffffff1673ffffffffffffffffffffffffffffffffffffffff168152602001908152602001600020600082825403925050819055506001600360008473ffffffffffffffffffffffffffffffffffffffff1673ffffffffffffffffffffffffffffffffffffffff16815260200190815260200160002060008282540192505081905550816002600083815260200190815260200160002060006101000a81548173ffffffffffffffffffffffffffffffffffffffff021916908373ffffffffffffffffffffffffffffffffffffffff160217905550808273ffffffffffffffffffffffffffffffffffffffff168473ffffffffffffffffffffffffffffffffffffffff167fddf252ad1be2c89b69c2b068fc378daa952ba7f163c4a11628f55a4df523b3ef60405160405180910390a46120ff8383836001612c39565b505050565b60006002600083815260200190815260200160002060009054906101000a900473ffffffffffffffffffffffffffffffffffffffff169050919050565b60008060008084519050600092505b808210156122eb57600085838151811061216d5761216c6144cf565b5b602001015160f81c60f81b9050608060f81b817effffffffffffffffffffffffffffffffffffffffffffffffffffffffffffff191610156121bc576001836121b591906146d1565b92506122d7565b60e060f81b817effffffffffffffffffffffffffffffffffffffffffffffffffffffffffffff191610156121fe576002836121f791906146d1565b92506122d6565b60f060f81b817effffffffffffffffffffffffffffffffffffffffffffffffffffffffffffff191610156122405760038361223991906146d1565b92506122d5565b60f8801b817effffffffffffffffffffffffffffffffffffffffffffffffffffffffffffff191610156122815760048361227a91906146d1565b92506122d4565b60fc60f81b817effffffffffffffffffffffffffffffffffffffffffffffffffffffffffffff191610156122c3576005836122bc91906146d1565b92506122d3565b6006836122d091906146d1565b92505b5b5b5b5b5082806122e39061452d565b935050612150565b829350505050919050565b8173ffffffffffffffffffffffffffffffffffffffff168373ffffffffffffffffffffffffffffffffffffffff161415612365576040517f08c379a000000000000000000000000000000000000000000000000000000000815260040161235c90614773565b60405180910390fd5b80600560008573ffffffffffffffffffffffffffffffffffffffff1673ffffffffffffffffffffffffffffffffffffffff16815260200190815260200160002060008473ffffffffffffffffffffffffffffffffffffffff1673ffffffffffffffffffffffffffffffffffffffff16815260200190815260200160002060006101000a81548160ff0219169083151502179055508173ffffffffffffffffffffffffffffffffffffffff168373ffffffffffffffffffffffffffffffffffffffff167f17307eab39ab6107e8899845ad3d59bd9653f200f220920489ca2b5937696c31836040516124569190613393565b60405180910390a3505050565b61246e848484611e0a565b61247a84848484612c3f565b6124b9576040517f08c379a00000000000000000000000000000000000000000000000000000000081526004016124b090614805565b60405180910390fd5b50505050565b606060405180602001604052806000815250905090565b60606124e182611c69565b60006124eb6124bf565b9050600081511161250b5760405180602001604052806000815250612536565b806125158461254c565b604051602001612526929190614065565b6040516020818303038152906040525b915050919050565b600081600001549050919050565b60606000600161255b84612dc7565b01905060008167ffffffffffffffff81111561257a5761257961369e565b5b6040519080825280601f01601f1916602001820160405280156125ac5781602001600182028036833780820191505090505b509050600082602001820190505b600115612619578080600190039150507f3031323334353637383961626364656600000000000000000000000000000000600a86061a8153600a858161260357612602614825565b5b049450600085141561261457612619565b6125ba565b819350505050919050565b6126c08484848460405160240161263e9493929190614854565b6040516020818303038152906040527f8eafb02b000000000000000000000000000000000000000000000000000000007bffffffffffffffffffffffffffffffffffffffffffffffffffffffff19166020820180517bffffffffffffffffffffffffffffffffffffffffffffffffffffffff8381831617835250505050612aa9565b50505050565b60606000825114156126e957604051806020016040528060008152509050612825565b6000604051806060016040528060408152602001614c76604091399050600060036002855161271891906146d1565b61272291906148ae565b600461272e91906148df565b67ffffffffffffffff8111156127475761274661369e565b5b6040519080825280601f01601f1916602001820160405280156127795781602001600182028036833780820191505090505b509050600182016020820185865187015b808210156127e5576003820191508151603f8160121c168501518453600184019350603f81600c1c168501518453600184019350603f8160061c168501518453600184019350603f811685015184536001840193505061278a565b505060038651066001811461280157600281146128145761281c565b603d6001830353603d600283035361281c565b603d60018303535b50505080925050505b919050565b612844828260405180602001604052806000815250612f1a565b5050565b61285182612ad2565b612890576040517f08c379a0000000000000000000000000000000000000000000000000000000008152600401612887906149ab565b60405180910390fd5b806006600084815260200190815260200160002090805190602001906128b792919061323c565b505050565b6129568383836040516024016128d4939291906149cb565b6040516020818303038152906040527fe0e9ad4f000000000000000000000000000000000000000000000000000000007bffffffffffffffffffffffffffffffffffffffffffffffffffffffff19166020820180517bffffffffffffffffffffffffffffffffffffffffffffffffffffffff8381831617835250505050612aa9565b505050565b6001816000016000828254019250508190555050565b612a07816040516024016129859190613447565b6040516020818303038152906040527f41304fac000000000000000000000000000000000000000000000000000000007bffffffffffffffffffffffffffffffffffffffffffffffffffffffff19166020820180517bffffffffffffffffffffffffffffffffffffffffffffffffffffffff8381831617835250505050612aa9565b50565b612aa4838383604051602401612a2293929190614a10565b6040516020818303038152906040527f5970e089000000000000000000000000000000000000000000000000000000007bffffffffffffffffffffffffffffffffffffffffffffffffffffffff19166020820180517bffffffffffffffffffffffffffffffffffffffffffffffffffffffff8381831617835250505050612aa9565b505050565b60008151905060006a636f6e736f6c652e6c6f679050602083016000808483855afa5050505050565b60008073ffffffffffffffffffffffffffffffffffffffff16612af483612104565b73ffffffffffffffffffffffffffffffffffffffff1614159050919050565b6001811115612c3357600073ffffffffffffffffffffffffffffffffffffffff168473ffffffffffffffffffffffffffffffffffffffff1614612ba75780600360008673ffffffffffffffffffffffffffffffffffffffff1673ffffffffffffffffffffffffffffffffffffffff1681526020019081526020016000206000828254612b9f9190614a55565b925050819055505b600073ffffffffffffffffffffffffffffffffffffffff168373ffffffffffffffffffffffffffffffffffffffff1614612c325780600360008573ffffffffffffffffffffffffffffffffffffffff1673ffffffffffffffffffffffffffffffffffffffff1681526020019081526020016000206000828254612c2a91906146d1565b925050819055505b5b50505050565b50505050565b6000612c608473ffffffffffffffffffffffffffffffffffffffff16612f75565b15612dba578373ffffffffffffffffffffffffffffffffffffffff1663150b7a02612c89611cb4565b8786866040518563ffffffff1660e01b8152600401612cab9493929190614ade565b6020604051808303816000875af1925050508015612ce757506040513d601f19601f82011682018060405250810190612ce49190614b3f565b60015b612d6a573d8060008114612d17576040519150601f19603f3d011682016040523d82523d6000602084013e612d1c565b606091505b50600081511415612d62576040517f08c379a0000000000000000000000000000000000000000000000000000000008152600401612d5990614805565b60405180910390fd5b805181602001fd5b63150b7a0260e01b7bffffffffffffffffffffffffffffffffffffffffffffffffffffffff1916817bffffffffffffffffffffffffffffffffffffffffffffffffffffffff191614915050612dbf565b600190505b949350505050565b600080600090507a184f03e93ff9f4daa797ed6e38ed64bf6a1f0100000000000000008310612e25577a184f03e93ff9f4daa797ed6e38ed64bf6a1f0100000000000000008381612e1b57612e1a614825565b5b0492506040810190505b6d04ee2d6d415b85acef81000000008310612e62576d04ee2d6d415b85acef81000000008381612e5857612e57614825565b5b0492506020810190505b662386f26fc100008310612e9157662386f26fc100008381612e8757612e86614825565b5b0492506010810190505b6305f5e1008310612eba576305f5e1008381612eb057612eaf614825565b5b0492506008810190505b6127108310612edf576127108381612ed557612ed4614825565b5b0492506004810190505b60648310612f025760648381612ef857612ef7614825565b5b0492506002810190505b600a8310612f11576001810190505b80915050919050565b612f248383612f98565b612f316000848484612c3f565b612f70576040517f08c379a0000000000000000000000000000000000000000000000000000000008152600401612f6790614805565b60405180910390fd5b505050565b6000808273ffffffffffffffffffffffffffffffffffffffff163b119050919050565b600073ffffffffffffffffffffffffffffffffffffffff168273ffffffffffffffffffffffffffffffffffffffff161415613008576040517f08c379a0000000000000000000000000000000000000000000000000000000008152600401612fff90614bb8565b60405180910390fd5b61301181612ad2565b15613051576040517f08c379a000000000000000000000000000000000000000000000000000000000815260040161304890614c24565b60405180910390fd5b61305f600083836001612b13565b61306881612ad2565b156130a8576040517f08c379a000000000000000000000000000000000000000000000000000000000815260040161309f90614c24565b60405180910390fd5b6001600360008473ffffffffffffffffffffffffffffffffffffffff1673ffffffffffffffffffffffffffffffffffffffff16815260200190815260200160002060008282540192505081905550816002600083815260200190815260200160002060006101000a81548173ffffffffffffffffffffffffffffffffffffffff021916908373ffffffffffffffffffffffffffffffffffffffff160217905550808273ffffffffffffffffffffffffffffffffffffffff16600073ffffffffffffffffffffffffffffffffffffffff167fddf252ad1be2c89b69c2b068fc378daa952ba7f163c4a11628f55a4df523b3ef60405160405180910390a46131b2600083836001612c39565b5050565b8280546131c290613c53565b90600052602060002090601f0160209004810192826131e4576000855561322b565b82601f106131fd57803560ff191683800117855561322b565b8280016001018555821561322b579182015b8281111561322a57823582559160200191906001019061320f565b5b50905061323891906132c2565b5090565b82805461324890613c53565b90600052602060002090601f01602090048101928261326a57600085556132b1565b82601f1061328357805160ff19168380011785556132b1565b828001600101855582156132b1579182015b828111156132b0578251825591602001919060010190613295565b5b5090506132be91906132c2565b5090565b5b808211156132db5760008160009055506001016132c3565b5090565b6000604051905090565b600080fd5b600080fd5b60007fffffffff0000000000000000000000000000000000000000000000000000000082169050919050565b613328816132f3565b811461333357600080fd5b50565b6000813590506133458161331f565b92915050565b600060208284031215613361576133606132e9565b5b600061336f84828501613336565b91505092915050565b60008115159050919050565b61338d81613378565b82525050565b60006020820190506133a86000830184613384565b92915050565b600081519050919050565b600082825260208201905092915050565b60005b838110156133e85780820151818401526020810190506133cd565b838111156133f7576000848401525b50505050565b6000601f19601f8301169050919050565b6000613419826133ae565b61342381856133b9565b93506134338185602086016133ca565b61343c816133fd565b840191505092915050565b60006020820190508181036000830152613461818461340e565b905092915050565b6000819050919050565b61347c81613469565b811461348757600080fd5b50565b60008135905061349981613473565b92915050565b6000602082840312156134b5576134b46132e9565b5b60006134c38482850161348a565b91505092915050565b600073ffffffffffffffffffffffffffffffffffffffff82169050919050565b60006134f7826134cc565b9050919050565b613507816134ec565b82525050565b600060208201905061352260008301846134fe565b92915050565b613531816134ec565b811461353c57600080fd5b50565b60008135905061354e81613528565b92915050565b6000806040838503121561356b5761356a6132e9565b5b60006135798582860161353f565b925050602061358a8582860161348a565b9150509250929050565b600080fd5b600080fd5b600080fd5b60008083601f8401126135b9576135b8613594565b5b8235905067ffffffffffffffff8111156135d6576135d5613599565b5b6020830191508360018202830111156135f2576135f161359e565b5b9250929050565b600080602083850312156136105761360f6132e9565b5b600083013567ffffffffffffffff81111561362e5761362d6132ee565b5b61363a858286016135a3565b92509250509250929050565b60008060006060848603121561365f5761365e6132e9565b5b600061366d8682870161353f565b935050602061367e8682870161353f565b925050604061368f8682870161348a565b9150509250925092565b600080fd5b7f4e487b7100000000000000000000000000000000000000000000000000000000600052604160045260246000fd5b6136d6826133fd565b810181811067ffffffffffffffff821117156136f5576136f461369e565b5b80604052505050565b60006137086132df565b905061371482826136cd565b919050565b600067ffffffffffffffff8211156137345761373361369e565b5b61373d826133fd565b9050602081019050919050565b82818337600083830152505050565b600061376c61376784613719565b6136fe565b90508281526020810184848401111561378857613787613699565b5b61379384828561374a565b509392505050565b600082601f8301126137b0576137af613594565b5b81356137c0848260208601613759565b91505092915050565b6000602082840312156137df576137de6132e9565b5b600082013567ffffffffffffffff8111156137fd576137fc6132ee565b5b6138098482850161379b565b91505092915050565b600060208284031215613828576138276132e9565b5b60006138368482850161353f565b91505092915050565b61384881613469565b82525050565b6000602082019050613863600083018461383f565b92915050565b6000613874826134cc565b9050919050565b61388481613869565b82525050565b600060208201905061389f600083018461387b565b92915050565b6138ae81613378565b81146138b957600080fd5b50565b6000813590506138cb816138a5565b92915050565b600080604083850312156138e8576138e76132e9565b5b60006138f68582860161353f565b9250506020613907858286016138bc565b9150509250929050565b600067ffffffffffffffff82111561392c5761392b61369e565b5b613935826133fd565b9050602081019050919050565b600061395561395084613911565b6136fe565b90508281526020810184848401111561397157613970613699565b5b61397c84828561374a565b509392505050565b600082601f83011261399957613998613594565b5b81356139a9848260208601613942565b91505092915050565b600080600080608085870312156139cc576139cb6132e9565b5b60006139da8782880161353f565b94505060206139eb8782880161353f565b93505060406139fc8782880161348a565b925050606085013567ffffffffffffffff811115613a1d57613a1c6132ee565b5b613a2987828801613984565b91505092959194509250565b60008060008060408587031215613a4f57613a4e6132e9565b5b600085013567ffffffffffffffff811115613a6d57613a6c6132ee565b5b613a79878288016135a3565b9450945050602085013567ffffffffffffffff811115613a9c57613a9b6132ee565b5b613aa8878288016135a3565b925092505092959194509250565b60008060408385031215613acd57613acc6132e9565b5b6000613adb8582860161353f565b9250506020613aec8582860161353f565b9150509250929050565b600081519050919050565b600082825260208201905092915050565b6000819050602082019050919050565b600082825260208201905092915050565b6000613b3e826133ae565b613b488185613b22565b9350613b588185602086016133ca565b613b61816133fd565b840191505092915050565b6000613b788383613b33565b905092915050565b6000602082019050919050565b6000613b9882613af6565b613ba28185613b01565b935083602082028501613bb485613b12565b8060005b85811015613bf05784840389528151613bd18582613b6c565b9450613bdc83613b80565b925060208a01995050600181019050613bb8565b50829750879550505050505092915050565b60006020820190508181036000830152613c1c8184613b8d565b905092915050565b7f4e487b7100000000000000000000000000000000000000000000000000000000600052602260045260246000fd5b60006002820490506001821680613c6b57607f821691505b60208210811415613c7f57613c7e613c24565b5b50919050565b7f4552433732313a20617070726f76616c20746f2063757272656e74206f776e6560008201527f7200000000000000000000000000000000000000000000000000000000000000602082015250565b6000613ce16021836133b9565b9150613cec82613c85565b604082019050919050565b60006020820190508181036000830152613d1081613cd4565b9050919050565b7f4552433732313a20617070726f76652063616c6c6572206973206e6f7420746f60008201527f6b656e206f776e6572206f7220617070726f76656420666f7220616c6c000000602082015250565b6000613d73603d836133b9565b9150613d7e82613d17565b604082019050919050565b60006020820190508181036000830152613da281613d66565b9050919050565b600081905092915050565b6000613dc08385613da9565b9350613dcd83858461374a565b82840190509392505050565b6000613de6828486613db4565b91508190509392505050565b7f4552433732313a2063616c6c6572206973206e6f7420746f6b656e206f776e6560008201527f72206f7220617070726f76656400000000000000000000000000000000000000602082015250565b6000613e4e602d836133b9565b9150613e5982613df2565b604082019050919050565b60006020820190508181036000830152613e7d81613e41565b9050919050565b600081905092915050565b50565b6000613e9f600083613e84565b9150613eaa82613e8f565b600082019050919050565b6000613ec082613e92565b9150819050919050565b7f4661696c656420746f207769746864726177204d617469630000000000000000600082015250565b6000613f006018836133b9565b9150613f0b82613eca565b602082019050919050565b60006020820190508181036000830152613f2f81613ef3565b9050919050565b7f4552433732313a20696e76616c696420746f6b656e2049440000000000000000600082015250565b6000613f6c6018836133b9565b9150613f7782613f36565b602082019050919050565b60006020820190508181036000830152613f9b81613f5f565b9050919050565b7f4552433732313a2061646472657373207a65726f206973206e6f74206120766160008201527f6c6964206f776e65720000000000000000000000000000000000000000000000602082015250565b6000613ffe6029836133b9565b915061400982613fa2565b604082019050919050565b6000602082019050818103600083015261402d81613ff1565b9050919050565b600061403f826133ae565b6140498185613da9565b93506140598185602086016133ca565b80840191505092915050565b60006140718285614034565b915061407d8284614034565b91508190509392505050565b600061409583856133b9565b93506140a283858461374a565b6140ab836133fd565b840190509392505050565b600060208201905081810360008301526140d1818486614089565b90509392505050565b7f4e6f7420656e6f756768204d6174696320706169640000000000000000000000600082015250565b60006141106015836133b9565b915061411b826140da565b602082019050919050565b6000602082019050818103600083015261413f81614103565b9050919050565b7f2e00000000000000000000000000000000000000000000000000000000000000600082015250565b600061417c600183613da9565b915061418782614146565b600182019050919050565b60008190508160005260206000209050919050565b600081546141b481613c53565b6141be8186613da9565b945060018216600081146141d957600181146141ea5761421d565b60ff1983168652818601935061421d565b6141f385614192565b60005b83811015614215578154818901526001820191506020810190506141f6565b838801955050505b50505092915050565b6000614233828587613db4565b915061423e8261416f565b915061424a82846141a7565b9150819050949350505050565b600061426382866141a7565b915061426f8285614034565b915061427b82846141a7565b9150819050949350505050565b7f7b226e616d65223a202200000000000000000000000000000000000000000000600082015250565b60006142be600a83613da9565b91506142c982614288565b600a82019050919050565b7f222c20226465736372697074696f6e223a20224120646f6d61696e206f6e207460008201527f686520436c6f7564204e616d652053657276696365222c2022696d616765223a60208201527f2022646174613a696d6167652f7376672b786d6c3b6261736536342c00000000604082015250565b6000614356605c83613da9565b9150614361826142d4565b605c82019050919050565b7f222c226c656e677468223a220000000000000000000000000000000000000000600082015250565b60006143a2600c83613da9565b91506143ad8261436c565b600c82019050919050565b7f227d000000000000000000000000000000000000000000000000000000000000600082015250565b60006143ee600283613da9565b91506143f9826143b8565b600282019050919050565b600061440f826142b1565b915061441b8286614034565b915061442682614349565b91506144328285614034565b915061443d82614395565b91506144498284614034565b9150614454826143e1565b9150819050949350505050565b7f646174613a6170706c69636174696f6e2f6a736f6e3b6261736536342c000000600082015250565b6000614497601d83613da9565b91506144a282614461565b601d82019050919050565b60006144b88261448a565b91506144c48284614034565b915081905092915050565b7f4e487b7100000000000000000000000000000000000000000000000000000000600052603260045260246000fd5b7f4e487b7100000000000000000000000000000000000000000000000000000000600052601160045260246000fd5b600061453882613469565b91507fffffffffffffffffffffffffffffffffffffffffffffffffffffffffffffffff82141561456b5761456a6144fe565b5b600182019050919050565b60006040820190508181036000830152614590818561340e565b905081810360208301526145a4818461340e565b90509392505050565b7f4552433732313a207472616e736665722066726f6d20696e636f72726563742060008201527f6f776e6572000000000000000000000000000000000000000000000000000000602082015250565b60006146096025836133b9565b9150614614826145ad565b604082019050919050565b60006020820190508181036000830152614638816145fc565b9050919050565b7f4552433732313a207472616e7366657220746f20746865207a65726f2061646460008201527f7265737300000000000000000000000000000000000000000000000000000000602082015250565b600061469b6024836133b9565b91506146a68261463f565b604082019050919050565b600060208201905081810360008301526146ca8161468e565b9050919050565b60006146dc82613469565b91506146e783613469565b9250827fffffffffffffffffffffffffffffffffffffffffffffffffffffffffffffffff0382111561471c5761471b6144fe565b5b828201905092915050565b7f4552433732313a20617070726f766520746f2063616c6c657200000000000000600082015250565b600061475d6019836133b9565b915061476882614727565b602082019050919050565b6000602082019050818103600083015261478c81614750565b9050919050565b7f4552433732313a207472616e7366657220746f206e6f6e20455243373231526560008201527f63656976657220696d706c656d656e7465720000000000000000000000000000602082015250565b60006147ef6032836133b9565b91506147fa82614793565b604082019050919050565b6000602082019050818103600083015261481e816147e2565b9050919050565b7f4e487b7100000000000000000000000000000000000000000000000000000000600052601260045260246000fd5b6000608082019050818103600083015261486e818761340e565b90508181036020830152614882818661340e565b90508181036040830152614896818561340e565b90506148a5606083018461383f565b95945050505050565b60006148b982613469565b91506148c483613469565b9250826148d4576148d3614825565b5b828204905092915050565b60006148ea82613469565b91506148f583613469565b9250817fffffffffffffffffffffffffffffffffffffffffffffffffffffffffffffffff048311821515161561492e5761492d6144fe565b5b828202905092915050565b7f45524337323155524953746f726167653a2055524920736574206f66206e6f6e60008201527f6578697374656e7420746f6b656e000000000000000000000000000000000000602082015250565b6000614995602e836133b9565b91506149a082614939565b604082019050919050565b600060208201905081810360008301526149c481614988565b9050919050565b600060608201905081810360008301526149e5818661340e565b90506149f460208301856134fe565b8181036040830152614a06818461340e565b9050949350505050565b60006060820190508181036000830152614a2a818661340e565b9050614a39602083018561383f565b8181036040830152614a4b818461340e565b9050949350505050565b6000614a6082613469565b9150614a6b83613469565b925082821015614a7e57614a7d6144fe565b5b828203905092915050565b600081519050919050565b600082825260208201905092915050565b6000614ab082614a89565b614aba8185614a94565b9350614aca8185602086016133ca565b614ad3816133fd565b840191505092915050565b6000608082019050614af360008301876134fe565b614b0060208301866134fe565b614b0d604083018561383f565b8181036060830152614b1f8184614aa5565b905095945050505050565b600081519050614b398161331f565b92915050565b600060208284031215614b5557614b546132e9565b5b6000614b6384828501614b2a565b91505092915050565b7f4552433732313a206d696e7420746f20746865207a65726f2061646472657373600082015250565b6000614ba26020836133b9565b9150614bad82614b6c565b602082019050919050565b60006020820190508181036000830152614bd181614b95565b9050919050565b7f4552433732313a20746f6b656e20616c7265616479206d696e74656400000000600082015250565b6000614c0e601c836133b9565b9150614c1982614bd8565b602082019050919050565b60006020820190508181036000830152614c3d81614c01565b905091905056fe5265676973746572696e672025732e2573206f6e2074686520636f6e7472616374207769746820746f6b656e49442025644142434445464748494a4b4c4d4e4f505152535455565758595a6162636465666768696a6b6c6d6e6f707172737475767778797a303132333435363738392b2f25732068617320726567697374657265642074686520646f6d61696e2027257327a26469706673582212204a34e951502248c57b7ad15958e5a37c5068a65fd25498aa22964a3980bf7dee64736f6c634300080a00333c73766720786d6c6e733d22687474703a2f2f7777772e77332e6f72672f323030302f737667222077696474683d2232373022206865696768743d22323730222066696c6c3d226e6f6e65223e3c706174682066696c6c3d2275726c282342292220643d224d302030683237307632373048307a222f3e3c646566733e3c66696c7465722069643d22412220636f6c6f722d696e746572706f6c6174696f6e2d66696c746572733d2273524742222066696c746572556e6974733d227573657253706163654f6e55736522206865696768743d22323730222077696474683d22323730223e3c666544726f70536861646f772064783d2230222064793d22312220737464446576696174696f6e3d22322220666c6f6f642d6f7061636974793d222e323235222077696474683d223230302522206865696768743d2232303025222f3e3c2f66696c7465723e3c2f646566733e3c7061746820643d224d37322e3836332034322e393439632d2e3636382d2e3338372d312e3432362d2e35392d322e3139372d2e3539732d312e3532392e3230342d322e3139372e35396c2d31302e30383120362e3033322d362e383520332e3933342d31302e30383120362e303332632d2e3636382e3338372d312e3432362e35392d322e3139372e3539732d312e3532392d2e3230342d322e3139372d2e35396c2d382e3031332d342e37323161342e353220342e35322030203020312d312e3538392d312e363136632d2e3338342d2e3636352d2e3539342d312e3431382d2e3630382d322e313837762d392e3331632d2e3031332d2e3737352e3138352d312e3533382e3537322d322e32303861342e323520342e323520302030203120312e3632352d312e3539356c372e3838342d342e3539632e3636382d2e33383720312e3432362d2e353920322e3139372d2e353973312e3532392e32303420322e3139372e35396c372e38383420342e353961342e353220342e353220302030203120312e35383920312e363136632e3338342e3636352e35393420312e3431382e36303820322e31383776362e3033326c362e38352d342e303635762d362e303332632e3031332d2e3737352d2e3138352d312e3533382d2e3537322d322e32303861342e323520342e32352030203020302d312e3632352d312e3539354c34312e3435362032342e3539632d2e3636382d2e3338372d312e3432362d2e35392d322e3139372d2e3539732d312e3532392e3230342d322e3139372e35396c2d31342e38363420382e36353561342e323520342e32352030203020302d312e36323520312e353935632d2e3338372e36372d2e35383520312e3433342d2e35373220322e3230387631372e343431632d2e3031332e3737352e31383520312e3533382e35373220322e32303861342e323520342e323520302030203020312e36323520312e3539356c31342e38363420382e363535632e3636382e33383720312e3432362e353920322e3139372e353973312e3532392d2e32303420322e3139372d2e35396c31302e3038312d352e39303120362e38352d342e3036352031302e3038312d352e393031632e3636382d2e33383720312e3432362d2e353920322e3139372d2e353973312e3532392e32303420322e3139372e35396c372e38383420342e353961342e353220342e353220302030203120312e35383920312e363136632e3338342e3636352e35393420312e3431382e36303820322e31383776392e333131632e3031332e3737352d2e31383520312e3533382d2e35373220322e32303861342e323520342e32352030203020312d312e36323520312e3539356c2d372e38383420342e373231632d2e3636382e3338372d312e3432362e35392d322e3139372e3539732d312e3532392d2e3230342d322e3139372d2e35396c2d372e3838342d342e353961342e353220342e35322030203020312d312e3538392d312e363136632d2e3338352d2e3636352d2e3539342d312e3431382d2e3630382d322e313837762d362e3033326c2d362e383520342e30363576362e303332632d2e3031332e3737352e31383520312e3533382e35373220322e32303861342e323520342e323520302030203020312e36323520312e3539356c31342e38363420382e363535632e3636382e33383720312e3432362e353920322e3139372e353973312e3532392d2e32303420322e3139372d2e35396c31342e3836342d382e363535632e3635372d2e33393420312e3230342d2e393520312e3538392d312e363136732e3539342d312e3431382e3630392d322e3138375635352e353338632e3031332d2e3737352d2e3138352d312e3533382d2e3537322d322e32303861342e323520342e32352030203020302d312e3632352d312e3539356c2d31342e3939332d382e3738367a222066696c6c3d2223666666222f3e3c646566733e3c6c696e6561724772616469656e742069643d2242222078313d2230222079313d2230222078323d22323730222079323d2232373022206772616469656e74556e6974733d227573657253706163654f6e557365223e3c73746f702073746f702d636f6c6f723d2223326165656663222f3e3c73746f70206f66667365743d2231222073746f702d636f6c6f723d2223326138356663222073746f702d6f7061636974793d222e3939222f3e3c2f6c696e6561724772616469656e743e3c2f646566733e3c7465787420783d2233322e352220793d223233312220666f6e742d73697a653d223237222066696c6c3d2223666666222066696c7465723d2275726c282341292220666f6e742d66616d696c793d22506c7573204a616b617274612053616e732c44656a6156752053616e732c4e6f746f20436f6c6f7220456d6f6a692c4170706c6520436f6c6f7220456d6f6a692c73616e732d73657269662220666f6e742d7765696768743d22626f6c64223e",
  "linkReferences": {},
  "deployedLinkReferences": {}
}