{
  "_format": "hh-sol-artifact-1",
  "contractName": "Domains",
  "sourceName": "contracts/Domains.sol",
  "abi": [
    {
      "inputs": [
        {
          "internalType": "string",
          "name": "_tld",
          "type": "string"
        }
      ],
      "stateMutability": "payable",
      "type": "constructor"
    },
    {
      "inputs": [],
      "name": "AlreadyRegistered",
      "type": "error"
    },
    {
      "inputs": [
        {
          "internalType": "string",
          "name": "name",
          "type": "string"
        }
      ],
      "name": "InvalidName",
      "type": "error"
    },
    {
      "inputs": [],
      "name": "Unauthorized",
      "type": "error"
    },
    {
      "anonymous": false,
      "inputs": [
        {
          "indexed": true,
          "internalType": "address",
          "name": "owner",
          "type": "address"
        },
        {
          "indexed": true,
          "internalType": "address",
          "name": "approved",
          "type": "address"
        },
        {
          "indexed": true,
          "internalType": "uint256",
          "name": "tokenId",
          "type": "uint256"
        }
      ],
      "name": "Approval",
      "type": "event"
    },
    {
      "anonymous": false,
      "inputs": [
        {
          "indexed": true,
          "internalType": "address",
          "name": "owner",
          "type": "address"
        },
        {
          "indexed": true,
          "internalType": "address",
          "name": "operator",
          "type": "address"
        },
        {
          "indexed": false,
          "internalType": "bool",
          "name": "approved",
          "type": "bool"
        }
      ],
      "name": "ApprovalForAll",
      "type": "event"
    },
    {
      "anonymous": false,
      "inputs": [
        {
          "indexed": true,
          "internalType": "address",
          "name": "from",
          "type": "address"
        },
        {
          "indexed": true,
          "internalType": "address",
          "name": "to",
          "type": "address"
        },
        {
          "indexed": true,
          "internalType": "uint256",
          "name": "tokenId",
          "type": "uint256"
        }
      ],
      "name": "Transfer",
      "type": "event"
    },
    {
      "inputs": [
        {
          "internalType": "address",
          "name": "to",
          "type": "address"
        },
        {
          "internalType": "uint256",
          "name": "tokenId",
          "type": "uint256"
        }
      ],
      "name": "approve",
      "outputs": [],
      "stateMutability": "nonpayable",
      "type": "function"
    },
    {
      "inputs": [
        {
          "internalType": "address",
          "name": "owner",
          "type": "address"
        }
      ],
      "name": "balanceOf",
      "outputs": [
        {
          "internalType": "uint256",
          "name": "",
          "type": "uint256"
        }
      ],
      "stateMutability": "view",
      "type": "function"
    },
    {
      "inputs": [
        {
          "internalType": "string",
          "name": "",
          "type": "string"
        }
      ],
      "name": "domains",
      "outputs": [
        {
          "internalType": "address",
          "name": "",
          "type": "address"
        }
      ],
      "stateMutability": "view",
      "type": "function"
    },
    {
      "inputs": [
        {
          "internalType": "string",
          "name": "name",
          "type": "string"
        }
      ],
      "name": "getAddress",
      "outputs": [
        {
          "internalType": "address",
          "name": "",
          "type": "address"
        }
      ],
      "stateMutability": "view",
      "type": "function"
    },
    {
      "inputs": [],
      "name": "getAllNames",
      "outputs": [
        {
          "internalType": "string[]",
          "name": "",
          "type": "string[]"
        }
      ],
      "stateMutability": "view",
      "type": "function"
    },
    {
      "inputs": [
        {
          "internalType": "uint256",
          "name": "tokenId",
          "type": "uint256"
        }
      ],
      "name": "getApproved",
      "outputs": [
        {
          "internalType": "address",
          "name": "",
          "type": "address"
        }
      ],
      "stateMutability": "view",
      "type": "function"
    },
    {
      "inputs": [
        {
          "internalType": "string",
          "name": "name",
          "type": "string"
        }
      ],
      "name": "getRecord",
      "outputs": [
        {
          "internalType": "string",
          "name": "",
          "type": "string"
        }
      ],
      "stateMutability": "view",
      "type": "function"
    },
    {
      "inputs": [
        {
          "internalType": "address",
          "name": "owner",
          "type": "address"
        },
        {
          "internalType": "address",
          "name": "operator",
          "type": "address"
        }
      ],
      "name": "isApprovedForAll",
      "outputs": [
        {
          "internalType": "bool",
          "name": "",
          "type": "bool"
        }
      ],
      "stateMutability": "view",
      "type": "function"
    },
    {
      "inputs": [],
      "name": "isOwner",
      "outputs": [
        {
          "internalType": "bool",
          "name": "",
          "type": "bool"
        }
      ],
      "stateMutability": "view",
      "type": "function"
    },
    {
      "inputs": [],
      "name": "name",
      "outputs": [
        {
          "internalType": "string",
          "name": "",
          "type": "string"
        }
      ],
      "stateMutability": "view",
      "type": "function"
    },
    {
      "inputs": [
        {
          "internalType": "uint256",
          "name": "",
          "type": "uint256"
        }
      ],
      "name": "names",
      "outputs": [
        {
          "internalType": "string",
          "name": "",
          "type": "string"
        }
      ],
      "stateMutability": "view",
      "type": "function"
    },
    {
      "inputs": [],
      "name": "owner",
      "outputs": [
        {
          "internalType": "address payable",
          "name": "",
          "type": "address"
        }
      ],
      "stateMutability": "view",
      "type": "function"
    },
    {
      "inputs": [
        {
          "internalType": "uint256",
          "name": "tokenId",
          "type": "uint256"
        }
      ],
      "name": "ownerOf",
      "outputs": [
        {
          "internalType": "address",
          "name": "",
          "type": "address"
        }
      ],
      "stateMutability": "view",
      "type": "function"
    },
    {
      "inputs": [
        {
          "internalType": "string",
          "name": "name",
          "type": "string"
        }
      ],
      "name": "price",
      "outputs": [
        {
          "internalType": "uint256",
          "name": "",
          "type": "uint256"
        }
      ],
      "stateMutability": "pure",
      "type": "function"
    },
    {
      "inputs": [
        {
          "internalType": "string",
          "name": "",
          "type": "string"
        }
      ],
      "name": "records",
      "outputs": [
        {
          "internalType": "string",
          "name": "",
          "type": "string"
        }
      ],
      "stateMutability": "view",
      "type": "function"
    },
    {
      "inputs": [
        {
          "internalType": "string",
          "name": "name",
          "type": "string"
        }
      ],
      "name": "register",
      "outputs": [],
      "stateMutability": "payable",
      "type": "function"
    },
    {
      "inputs": [
        {
          "internalType": "address",
          "name": "from",
          "type": "address"
        },
        {
          "internalType": "address",
          "name": "to",
          "type": "address"
        },
        {
          "internalType": "uint256",
          "name": "tokenId",
          "type": "uint256"
        }
      ],
      "name": "safeTransferFrom",
      "outputs": [],
      "stateMutability": "nonpayable",
      "type": "function"
    },
    {
      "inputs": [
        {
          "internalType": "address",
          "name": "from",
          "type": "address"
        },
        {
          "internalType": "address",
          "name": "to",
          "type": "address"
        },
        {
          "internalType": "uint256",
          "name": "tokenId",
          "type": "uint256"
        },
        {
          "internalType": "bytes",
          "name": "data",
          "type": "bytes"
        }
      ],
      "name": "safeTransferFrom",
      "outputs": [],
      "stateMutability": "nonpayable",
      "type": "function"
    },
    {
      "inputs": [
        {
          "internalType": "address",
          "name": "operator",
          "type": "address"
        },
        {
          "internalType": "bool",
          "name": "approved",
          "type": "bool"
        }
      ],
      "name": "setApprovalForAll",
      "outputs": [],
      "stateMutability": "nonpayable",
      "type": "function"
    },
    {
      "inputs": [
        {
          "internalType": "string",
          "name": "name",
          "type": "string"
        },
        {
          "internalType": "string",
          "name": "record",
          "type": "string"
        }
      ],
      "name": "setRecord",
      "outputs": [],
      "stateMutability": "nonpayable",
      "type": "function"
    },
    {
      "inputs": [
        {
          "internalType": "bytes4",
          "name": "interfaceId",
          "type": "bytes4"
        }
      ],
      "name": "supportsInterface",
      "outputs": [
        {
          "internalType": "bool",
          "name": "",
          "type": "bool"
        }
      ],
      "stateMutability": "view",
      "type": "function"
    },
    {
      "inputs": [],
      "name": "symbol",
      "outputs": [
        {
          "internalType": "string",
          "name": "",
          "type": "string"
        }
      ],
      "stateMutability": "view",
      "type": "function"
    },
    {
      "inputs": [],
      "name": "tld",
      "outputs": [
        {
          "internalType": "string",
          "name": "",
          "type": "string"
        }
      ],
      "stateMutability": "view",
      "type": "function"
    },
    {
      "inputs": [
        {
          "internalType": "uint256",
          "name": "tokenId",
          "type": "uint256"
        }
      ],
      "name": "tokenURI",
      "outputs": [
        {
          "internalType": "string",
          "name": "",
          "type": "string"
        }
      ],
      "stateMutability": "view",
      "type": "function"
    },
    {
      "inputs": [
        {
          "internalType": "address",
          "name": "from",
          "type": "address"
        },
        {
          "internalType": "address",
          "name": "to",
          "type": "address"
        },
        {
          "internalType": "uint256",
          "name": "tokenId",
          "type": "uint256"
        }
      ],
      "name": "transferFrom",
      "outputs": [],
      "stateMutability": "nonpayable",
      "type": "function"
    },
    {
      "inputs": [
        {
          "internalType": "string",
          "name": "name",
          "type": "string"
        }
      ],
      "name": "valid",
      "outputs": [
        {
          "internalType": "bool",
          "name": "",
          "type": "bool"
        }
      ],
      "stateMutability": "pure",
      "type": "function"
    },
    {
      "inputs": [],
      "name": "withdraw",
      "outputs": [],
      "stateMutability": "nonpayable",
      "type": "function"
    }
  ],
  "bytecode": "0x6080604052604051806108a0016040528061086b81526020016200532861086b9139600a908051906020019062000038929190620002c8565b506040518060400160405280600d81526020017f3c2f746578743e3c2f7376673e00000000000000000000000000000000000000815250600b908051906020019062000086929190620002c8565b5060405162005b9338038062005b938339818101604052810190620000ac919062000515565b6040518060400160405280601281526020017f436c6f7564204e616d65205365727669636500000000000000000000000000008152506040518060400160405280600381526020017f434e530000000000000000000000000000000000000000000000000000000000815250816000908051906020019062000130929190620002c8565b50806001908051906020019062000149929190620002c8565b50505033600860006101000a81548173ffffffffffffffffffffffffffffffffffffffff021916908373ffffffffffffffffffffffffffffffffffffffff1602179055508060099080519060200190620001a5929190620002c8565b50620001f26040518060400160405280601881526020017f2573206e616d652073657276696365206465706c6f796564000000000000000081525082620001f960201b62001b0c1760201c565b5062000663565b6200029b828260405160240162000212929190620005c3565b6040516020818303038152906040527f4b5c4277000000000000000000000000000000000000000000000000000000007bffffffffffffffffffffffffffffffffffffffffffffffffffffffff19166020820180517bffffffffffffffffffffffffffffffffffffffffffffffffffffffff83818316178352505050506200029f60201b60201c565b5050565b60008151905060006a636f6e736f6c652e6c6f679050602083016000808483855afa5050505050565b828054620002d6906200062d565b90600052602060002090601f016020900481019282620002fa576000855562000346565b82601f106200031557805160ff191683800117855562000346565b8280016001018555821562000346579182015b828111156200034557825182559160200191906001019062000328565b5b50905062000355919062000359565b5090565b5b80821115620003745760008160009055506001016200035a565b5090565b6000604051905090565b600080fd5b600080fd5b600080fd5b600080fd5b6000601f19601f8301169050919050565b7f4e487b7100000000000000000000000000000000000000000000000000000000600052604160045260246000fd5b620003e18262000396565b810181811067ffffffffffffffff82111715620004035762000402620003a7565b5b80604052505050565b60006200041862000378565b9050620004268282620003d6565b919050565b600067ffffffffffffffff821115620004495762000448620003a7565b5b620004548262000396565b9050602081019050919050565b60005b838110156200048157808201518184015260208101905062000464565b8381111562000491576000848401525b50505050565b6000620004ae620004a8846200042b565b6200040c565b905082815260208101848484011115620004cd57620004cc62000391565b5b620004da84828562000461565b509392505050565b600082601f830112620004fa57620004f96200038c565b5b81516200050c84826020860162000497565b91505092915050565b6000602082840312156200052e576200052d62000382565b5b600082015167ffffffffffffffff8111156200054f576200054e62000387565b5b6200055d84828501620004e2565b91505092915050565b600081519050919050565b600082825260208201905092915050565b60006200058f8262000566565b6200059b818562000571565b9350620005ad81856020860162000461565b620005b88162000396565b840191505092915050565b60006040820190508181036000830152620005df818562000582565b90508181036020830152620005f5818462000582565b90509392505050565b7f4e487b7100000000000000000000000000000000000000000000000000000000600052602260045260246000fd5b600060028204905060018216806200064657607f821691505b602082108114156200065d576200065c620005fe565b5b50919050565b614cb580620006736000396000f3fe60806040526004361061019c5760003560e01c806370a08231116100ec578063bf40fac11161008a578063e985e9c511610064578063e985e9c514610624578063f2c298be14610661578063fb825e5f1461067d578063fe2c6198146106a85761019c565b8063bf40fac114610581578063c1880a98146105be578063c87b56dd146105e75761019c565b806395d89b41116100c657806395d89b41146104c75780639791c097146104f2578063a22cb4651461052f578063b88d4fde146105585761019c565b806370a08231146104345780638da5cb5b146104715780638f32d59b1461049c5761019c565b8063264492351161015957806342842e0e1161013357806342842e0e146103545780634622ab031461037d578063541e771d146103ba5780636352211e146103f75761019c565b806326449235146102d55780632d551432146103125780633ccfd60b1461033d5761019c565b806301ffc9a7146101a157806306fdde03146101de578063081812fc14610209578063095ea7b31461024657806311dd88451461026f57806323b872dd146102ac575b600080fd5b3480156101ad57600080fd5b506101c860048036038101906101c391906132f4565b6106e5565b6040516101d5919061333c565b60405180910390f35b3480156101ea57600080fd5b506101f36107c7565b60405161020091906133f0565b60405180910390f35b34801561021557600080fd5b50610230600480360381019061022b9190613448565b610859565b60405161023d91906134b6565b60405180910390f35b34801561025257600080fd5b5061026d600480360381019061026891906134fd565b61089f565b005b34801561027b57600080fd5b50610296600480360381019061029191906135a2565b6109b7565b6040516102a391906133f0565b60405180910390f35b3480156102b857600080fd5b506102d360048036038101906102ce91906135ef565b610a6a565b005b3480156102e157600080fd5b506102fc60048036038101906102f79190613772565b610aca565b60405161030991906134b6565b60405180910390f35b34801561031e57600080fd5b50610327610b13565b60405161033491906133f0565b60405180910390f35b34801561034957600080fd5b50610352610ba1565b005b34801561036057600080fd5b5061037b600480360381019061037691906135ef565b610c67565b005b34801561038957600080fd5b506103a4600480360381019061039f9190613448565b610c87565b6040516103b191906133f0565b60405180910390f35b3480156103c657600080fd5b506103e160048036038101906103dc9190613772565b610d27565b6040516103ee91906133f0565b60405180910390f35b34801561040357600080fd5b5061041e60048036038101906104199190613448565b610ddd565b60405161042b91906134b6565b60405180910390f35b34801561044057600080fd5b5061045b600480360381019061045691906137bb565b610e64565b60405161046891906137f7565b60405180910390f35b34801561047d57600080fd5b50610486610f1c565b6040516104939190613833565b60405180910390f35b3480156104a857600080fd5b506104b1610f42565b6040516104be919061333c565b60405180910390f35b3480156104d357600080fd5b506104dc610f9a565b6040516104e991906133f0565b60405180910390f35b3480156104fe57600080fd5b50610519600480360381019061051491906135a2565b61102c565b604051610526919061333c565b60405180910390f35b34801561053b57600080fd5b506105566004803603810190610551919061387a565b6110e0565b005b34801561056457600080fd5b5061057f600480360381019061057a919061395b565b6110f6565b005b34801561058d57600080fd5b506105a860048036038101906105a391906135a2565b611158565b6040516105b591906134b6565b60405180910390f35b3480156105ca57600080fd5b506105e560048036038101906105e091906139de565b6111a3565b005b3480156105f357600080fd5b5061060e60048036038101906106099190613448565b61127e565b60405161061b91906133f0565b60405180910390f35b34801561063057600080fd5b5061064b60048036038101906106469190613a5f565b611391565b604051610658919061333c565b60405180910390f35b61067b600480360381019061067691906135a2565b611425565b005b34801561068957600080fd5b50610692611889565b60405161069f9190613bab565b60405180910390f35b3480156106b457600080fd5b506106cf60048036038101906106ca91906135a2565b611a67565b6040516106dc91906137f7565b60405180910390f35b60007f80ac58cd000000000000000000000000000000000000000000000000000000007bffffffffffffffffffffffffffffffffffffffffffffffffffffffff1916827bffffffffffffffffffffffffffffffffffffffffffffffffffffffff191614806107b057507f5b5e139f000000000000000000000000000000000000000000000000000000007bffffffffffffffffffffffffffffffffffffffffffffffffffffffff1916827bffffffffffffffffffffffffffffffffffffffffffffffffffffffff1916145b806107c057506107bf82611ba8565b5b9050919050565b6060600080546107d690613bfc565b80601f016020809104026020016040519081016040528092919081815260200182805461080290613bfc565b801561084f5780601f106108245761010080835404028352916020019161084f565b820191906000526020600020905b81548152906001019060200180831161083257829003601f168201915b5050505050905090565b600061086482611c12565b6004600083815260200190815260200160002060009054906101000a900473ffffffffffffffffffffffffffffffffffffffff169050919050565b60006108aa82610ddd565b90508073ffffffffffffffffffffffffffffffffffffffff168373ffffffffffffffffffffffffffffffffffffffff16141561091b576040517f08c379a000000000000000000000000000000000000000000000000000000000815260040161091290613ca0565b60405180910390fd5b8073ffffffffffffffffffffffffffffffffffffffff1661093a611c5d565b73ffffffffffffffffffffffffffffffffffffffff161480610969575061096881610963611c5d565b611391565b5b6109a8576040517f08c379a000000000000000000000000000000000000000000000000000000000815260040161099f90613d32565b60405180910390fd5b6109b28383611c65565b505050565b6060600d83836040516109cb929190613d82565b908152602001604051809103902080546109e490613bfc565b80601f0160208091040260200160405190810160405280929190818152602001828054610a1090613bfc565b8015610a5d5780601f10610a3257610100808354040283529160200191610a5d565b820191906000526020600020905b815481529060010190602001808311610a4057829003601f168201915b5050505050905092915050565b610a7b610a75611c5d565b82611d1e565b610aba576040517f08c379a0000000000000000000000000000000000000000000000000000000008152600401610ab190613e0d565b60405180910390fd5b610ac5838383611db3565b505050565b600c818051602081018201805184825260208301602085012081835280955050505050506000915054906101000a900473ffffffffffffffffffffffffffffffffffffffff1681565b60098054610b2090613bfc565b80601f0160208091040260200160405190810160405280929190818152602001828054610b4c90613bfc565b8015610b995780601f10610b6e57610100808354040283529160200191610b99565b820191906000526020600020905b815481529060010190602001808311610b7c57829003601f168201915b505050505081565b610ba9610f42565b610bb257600080fd5b600047905060003373ffffffffffffffffffffffffffffffffffffffff1682604051610bdd90613e5e565b60006040518083038185875af1925050503d8060008114610c1a576040519150601f19603f3d011682016040523d82523d6000602084013e610c1f565b606091505b5050905080610c63576040517f08c379a0000000000000000000000000000000000000000000000000000000008152600401610c5a90613ebf565b60405180910390fd5b5050565b610c82838383604051806020016040528060008152506110f6565b505050565b600e6020528060005260406000206000915090508054610ca690613bfc565b80601f0160208091040260200160405190810160405280929190818152602001828054610cd290613bfc565b8015610d1f5780601f10610cf457610100808354040283529160200191610d1f565b820191906000526020600020905b815481529060010190602001808311610d0257829003601f168201915b505050505081565b600d818051602081018201805184825260208301602085012081835280955050505050506000915090508054610d5c90613bfc565b80601f0160208091040260200160405190810160405280929190818152602001828054610d8890613bfc565b8015610dd55780601f10610daa57610100808354040283529160200191610dd5565b820191906000526020600020905b815481529060010190602001808311610db857829003601f168201915b505050505081565b600080610de9836120ad565b9050600073ffffffffffffffffffffffffffffffffffffffff168173ffffffffffffffffffffffffffffffffffffffff161415610e5b576040517f08c379a0000000000000000000000000000000000000000000000000000000008152600401610e5290613f2b565b60405180910390fd5b80915050919050565b60008073ffffffffffffffffffffffffffffffffffffffff168273ffffffffffffffffffffffffffffffffffffffff161415610ed5576040517f08c379a0000000000000000000000000000000000000000000000000000000008152600401610ecc90613fbd565b60405180910390fd5b600360008373ffffffffffffffffffffffffffffffffffffffff1673ffffffffffffffffffffffffffffffffffffffff168152602001908152602001600020549050919050565b600860009054906101000a900473ffffffffffffffffffffffffffffffffffffffff1681565b6000600860009054906101000a900473ffffffffffffffffffffffffffffffffffffffff1673ffffffffffffffffffffffffffffffffffffffff163373ffffffffffffffffffffffffffffffffffffffff1614905090565b606060018054610fa990613bfc565b80601f0160208091040260200160405190810160405280929190818152602001828054610fd590613bfc565b80156110225780601f10610ff757610100808354040283529160200191611022565b820191906000526020600020905b81548152906001019060200180831161100557829003601f168201915b5050505050905090565b6000600361107d84848080601f016020809104026020016040519081016040528093929190818152602001838380828437600081840152601f19601f820116905080830192505050505050506120ea565b101580156110d85750600b6110d584848080601f016020809104026020016040519081016040528093929190818152602001838380828437600081840152601f19601f820116905080830192505050505050506120ea565b11155b905092915050565b6110f26110eb611c5d565b838361229f565b5050565b611107611101611c5d565b83611d1e565b611146576040517f08c379a000000000000000000000000000000000000000000000000000000000815260040161113d90613e0d565b60405180910390fd5b6111528484848461240c565b50505050565b6000600c838360405161116c929190613d82565b908152602001604051809103902060009054906101000a900473ffffffffffffffffffffffffffffffffffffffff16905092915050565b600c84846040516111b5929190613d82565b908152602001604051809103902060009054906101000a900473ffffffffffffffffffffffffffffffffffffffff1673ffffffffffffffffffffffffffffffffffffffff163373ffffffffffffffffffffffffffffffffffffffff1614611248576040517f82b4290000000000000000000000000000000000000000000000000000000000815260040160405180910390fd5b8181600d868660405161125c929190613d82565b9081526020016040518091039020919061127792919061315f565b5050505050565b606061128982611c12565b60006006600084815260200190815260200160002080546112a990613bfc565b80601f01602080910402602001604051908101604052809291908181526020018280546112d590613bfc565b80156113225780601f106112f757610100808354040283529160200191611322565b820191906000526020600020905b81548152906001019060200180831161130557829003601f168201915b505050505090506000611333612468565b905060008151141561134957819250505061138c565b60008251111561137e57808260405160200161136692919061400e565b6040516020818303038152906040529250505061138c565b6113878461247f565b925050505b919050565b6000600560008473ffffffffffffffffffffffffffffffffffffffff1673ffffffffffffffffffffffffffffffffffffffff16815260200190815260200160002060008373ffffffffffffffffffffffffffffffffffffffff1673ffffffffffffffffffffffffffffffffffffffff16815260200190815260200160002060009054906101000a900460ff16905092915050565b600073ffffffffffffffffffffffffffffffffffffffff16600c838360405161144f929190613d82565b908152602001604051809103902060009054906101000a900473ffffffffffffffffffffffffffffffffffffffff1673ffffffffffffffffffffffffffffffffffffffff16146114cb576040517f3a81d6fc00000000000000000000000000000000000000000000000000000000815260040160405180910390fd5b6114d5828261102c565b6115185781816040517f7f19f48d00000000000000000000000000000000000000000000000000000000815260040161150f92919061405f565b60405180910390fd5b60006115248383611a67565b905080341015611569576040517f08c379a0000000000000000000000000000000000000000000000000000000008152600401611560906140cf565b60405180910390fd5b600083836009604051602001611581939291906141cf565b60405160208183030381529060405290506000600a82600b6040516020016115ab93929190614200565b604051602081830303815290604052905060006115c860076124e7565b9050600061161987878080601f016020809104026020016040519081016040528093929190818152602001838380828437600081840152601f19601f820116905080830192505050505050506120ea565b90506000611626826124f5565b905061171a604051806060016040528060318152602001614bee6031913989898080601f016020809104026020016040519081016040528093929190818152602001838380828437600081840152601f19601f820116905080830192505050505050506009805461169690613bfc565b80601f01602080910402602001604051908101604052809291908181526020018280546116c290613bfc565b801561170f5780601f106116e45761010080835404028352916020019161170f565b820191906000526020600020905b8154815290600101906020018083116116f257829003601f168201915b5050505050866125cd565b6000611750866117298761266f565b8460405160200161173c939291906143ad565b60405160208183030381529060405261266f565b90506000816040516020016117659190614456565b604051602081830303815290604052905061178033866127d3565b61178a85826127f1565b33600c8b8b60405161179d929190613d82565b908152602001604051809103902060006101000a81548173ffffffffffffffffffffffffffffffffffffffff021916908373ffffffffffffffffffffffffffffffffffffffff160217905550611850604051806060016040528060218152602001614c5f60219139338c8c8080601f016020809104026020016040519081016040528093929190818152602001838380828437600081840152601f19601f82011690508083019250505050505050612865565b8989600e6000888152602001908152602001600020919061187292919061315f565b5061187d6007612904565b50505050505050505050565b60606118c96040518060400160405280601f81526020017f47657474696e6720616c6c206e616d65732066726f6d20636f6e74726163740081525061291a565b60006118d560076124e7565b67ffffffffffffffff8111156118ee576118ed613647565b5b60405190808252806020026020018201604052801561192157816020015b606081526020019060019003908161190c5790505b50905060005b61193160076124e7565b811015611a5f57600e6000828152602001908152602001600020805461195690613bfc565b80601f016020809104026020016040519081016040528092919081815260200182805461198290613bfc565b80156119cf5780601f106119a4576101008083540402835291602001916119cf565b820191906000526020600020905b8154815290600101906020018083116119b257829003601f168201915b50505050508282815181106119e7576119e6614478565b5b6020026020010181905250611a4c6040518060400160405280601781526020017f4e616d6520666f7220746f6b656e20256420697320257300000000000000000081525082848481518110611a3f57611a3e614478565b5b60200260200101516129b3565b8080611a57906144d6565b915050611927565b508091505090565b600080611ab784848080601f016020809104026020016040519081016040528093929190818152602001838380828437600081840152601f19601f820116905080830192505050505050506120ea565b905060008111611ac657600080fd5b6003811415611ae05767058d15e176280000915050611b06565b6004811415611afa576702c68af0bb140000915050611b06565b662386f26fc100009150505b92915050565b611ba48282604051602401611b2292919061451f565b6040516020818303038152906040527f4b5c4277000000000000000000000000000000000000000000000000000000007bffffffffffffffffffffffffffffffffffffffffffffffffffffffff19166020820180517bffffffffffffffffffffffffffffffffffffffffffffffffffffffff8381831617835250505050612a52565b5050565b60007f01ffc9a7000000000000000000000000000000000000000000000000000000007bffffffffffffffffffffffffffffffffffffffffffffffffffffffff1916827bffffffffffffffffffffffffffffffffffffffffffffffffffffffff1916149050919050565b611c1b81612a7b565b611c5a576040517f08c379a0000000000000000000000000000000000000000000000000000000008152600401611c5190613f2b565b60405180910390fd5b50565b600033905090565b816004600083815260200190815260200160002060006101000a81548173ffffffffffffffffffffffffffffffffffffffff021916908373ffffffffffffffffffffffffffffffffffffffff160217905550808273ffffffffffffffffffffffffffffffffffffffff16611cd883610ddd565b73ffffffffffffffffffffffffffffffffffffffff167f8c5be1e5ebec7d5bd14f71427d1e84f3dd0314c0f7b2291e5b200ac8c7c3b92560405160405180910390a45050565b600080611d2a83610ddd565b90508073ffffffffffffffffffffffffffffffffffffffff168473ffffffffffffffffffffffffffffffffffffffff161480611d6c5750611d6b8185611391565b5b80611daa57508373ffffffffffffffffffffffffffffffffffffffff16611d9284610859565b73ffffffffffffffffffffffffffffffffffffffff16145b91505092915050565b8273ffffffffffffffffffffffffffffffffffffffff16611dd382610ddd565b73ffffffffffffffffffffffffffffffffffffffff1614611e29576040517f08c379a0000000000000000000000000000000000000000000000000000000008152600401611e20906145c8565b60405180910390fd5b600073ffffffffffffffffffffffffffffffffffffffff168273ffffffffffffffffffffffffffffffffffffffff161415611e99576040517f08c379a0000000000000000000000000000000000000000000000000000000008152600401611e909061465a565b60405180910390fd5b611ea68383836001612abc565b8273ffffffffffffffffffffffffffffffffffffffff16611ec682610ddd565b73ffffffffffffffffffffffffffffffffffffffff1614611f1c576040517f08c379a0000000000000000000000000000000000000000000000000000000008152600401611f13906145c8565b60405180910390fd5b6004600082815260200190815260200160002060006101000a81549073ffffffffffffffffffffffffffffffffffffffff02191690556001600360008573ffffffffffffffffffffffffffffffffffffffff1673ffffffffffffffffffffffffffffffffffffffff168152602001908152602001600020600082825403925050819055506001600360008473ffffffffffffffffffffffffffffffffffffffff1673ffffffffffffffffffffffffffffffffffffffff16815260200190815260200160002060008282540192505081905550816002600083815260200190815260200160002060006101000a81548173ffffffffffffffffffffffffffffffffffffffff021916908373ffffffffffffffffffffffffffffffffffffffff160217905550808273ffffffffffffffffffffffffffffffffffffffff168473ffffffffffffffffffffffffffffffffffffffff167fddf252ad1be2c89b69c2b068fc378daa952ba7f163c4a11628f55a4df523b3ef60405160405180910390a46120a88383836001612be2565b505050565b60006002600083815260200190815260200160002060009054906101000a900473ffffffffffffffffffffffffffffffffffffffff169050919050565b60008060008084519050600092505b8082101561229457600085838151811061211657612115614478565b5b602001015160f81c60f81b9050608060f81b817effffffffffffffffffffffffffffffffffffffffffffffffffffffffffffff191610156121655760018361215e919061467a565b9250612280565b60e060f81b817effffffffffffffffffffffffffffffffffffffffffffffffffffffffffffff191610156121a7576002836121a0919061467a565b925061227f565b60f060f81b817effffffffffffffffffffffffffffffffffffffffffffffffffffffffffffff191610156121e9576003836121e2919061467a565b925061227e565b60f8801b817effffffffffffffffffffffffffffffffffffffffffffffffffffffffffffff1916101561222a57600483612223919061467a565b925061227d565b60fc60f81b817effffffffffffffffffffffffffffffffffffffffffffffffffffffffffffff1916101561226c57600583612265919061467a565b925061227c565b600683612279919061467a565b92505b5b5b5b5b50828061228c906144d6565b9350506120f9565b829350505050919050565b8173ffffffffffffffffffffffffffffffffffffffff168373ffffffffffffffffffffffffffffffffffffffff16141561230e576040517f08c379a00000000000000000000000000000000000000000000000000000000081526004016123059061471c565b60405180910390fd5b80600560008573ffffffffffffffffffffffffffffffffffffffff1673ffffffffffffffffffffffffffffffffffffffff16815260200190815260200160002060008473ffffffffffffffffffffffffffffffffffffffff1673ffffffffffffffffffffffffffffffffffffffff16815260200190815260200160002060006101000a81548160ff0219169083151502179055508173ffffffffffffffffffffffffffffffffffffffff168373ffffffffffffffffffffffffffffffffffffffff167f17307eab39ab6107e8899845ad3d59bd9653f200f220920489ca2b5937696c31836040516123ff919061333c565b60405180910390a3505050565b612417848484611db3565b61242384848484612be8565b612462576040517f08c379a0000000000000000000000000000000000000000000000000000000008152600401612459906147ae565b60405180910390fd5b50505050565b606060405180602001604052806000815250905090565b606061248a82611c12565b6000612494612468565b905060008151116124b457604051806020016040528060008152506124df565b806124be846124f5565b6040516020016124cf92919061400e565b6040516020818303038152906040525b915050919050565b600081600001549050919050565b60606000600161250484612d70565b01905060008167ffffffffffffffff81111561252357612522613647565b5b6040519080825280601f01601f1916602001820160405280156125555781602001600182028036833780820191505090505b509050600082602001820190505b6001156125c2578080600190039150507f3031323334353637383961626364656600000000000000000000000000000000600a86061a8153600a85816125ac576125ab6147ce565b5b04945060008514156125bd576125c2565b612563565b819350505050919050565b612669848484846040516024016125e794939291906147fd565b6040516020818303038152906040527f8eafb02b000000000000000000000000000000000000000000000000000000007bffffffffffffffffffffffffffffffffffffffffffffffffffffffff19166020820180517bffffffffffffffffffffffffffffffffffffffffffffffffffffffff8381831617835250505050612a52565b50505050565b6060600082511415612692576040518060200160405280600081525090506127ce565b6000604051806060016040528060408152602001614c1f60409139905060006003600285516126c1919061467a565b6126cb9190614857565b60046126d79190614888565b67ffffffffffffffff8111156126f0576126ef613647565b5b6040519080825280601f01601f1916602001820160405280156127225781602001600182028036833780820191505090505b509050600182016020820185865187015b8082101561278e576003820191508151603f8160121c168501518453600184019350603f81600c1c168501518453600184019350603f8160061c168501518453600184019350603f8116850151845360018401935050612733565b50506003865106600181146127aa57600281146127bd576127c5565b603d6001830353603d60028303536127c5565b603d60018303535b50505080925050505b919050565b6127ed828260405180602001604052806000815250612ec3565b5050565b6127fa82612a7b565b612839576040517f08c379a000000000000000000000000000000000000000000000000000000000815260040161283090614954565b60405180910390fd5b806006600084815260200190815260200160002090805190602001906128609291906131e5565b505050565b6128ff83838360405160240161287d93929190614974565b6040516020818303038152906040527fe0e9ad4f000000000000000000000000000000000000000000000000000000007bffffffffffffffffffffffffffffffffffffffffffffffffffffffff19166020820180517bffffffffffffffffffffffffffffffffffffffffffffffffffffffff8381831617835250505050612a52565b505050565b6001816000016000828254019250508190555050565b6129b08160405160240161292e91906133f0565b6040516020818303038152906040527f41304fac000000000000000000000000000000000000000000000000000000007bffffffffffffffffffffffffffffffffffffffffffffffffffffffff19166020820180517bffffffffffffffffffffffffffffffffffffffffffffffffffffffff8381831617835250505050612a52565b50565b612a4d8383836040516024016129cb939291906149b9565b6040516020818303038152906040527f5970e089000000000000000000000000000000000000000000000000000000007bffffffffffffffffffffffffffffffffffffffffffffffffffffffff19166020820180517bffffffffffffffffffffffffffffffffffffffffffffffffffffffff8381831617835250505050612a52565b505050565b60008151905060006a636f6e736f6c652e6c6f679050602083016000808483855afa5050505050565b60008073ffffffffffffffffffffffffffffffffffffffff16612a9d836120ad565b73ffffffffffffffffffffffffffffffffffffffff1614159050919050565b6001811115612bdc57600073ffffffffffffffffffffffffffffffffffffffff168473ffffffffffffffffffffffffffffffffffffffff1614612b505780600360008673ffffffffffffffffffffffffffffffffffffffff1673ffffffffffffffffffffffffffffffffffffffff1681526020019081526020016000206000828254612b4891906149fe565b925050819055505b600073ffffffffffffffffffffffffffffffffffffffff168373ffffffffffffffffffffffffffffffffffffffff1614612bdb5780600360008573ffffffffffffffffffffffffffffffffffffffff1673ffffffffffffffffffffffffffffffffffffffff1681526020019081526020016000206000828254612bd3919061467a565b925050819055505b5b50505050565b50505050565b6000612c098473ffffffffffffffffffffffffffffffffffffffff16612f1e565b15612d63578373ffffffffffffffffffffffffffffffffffffffff1663150b7a02612c32611c5d565b8786866040518563ffffffff1660e01b8152600401612c549493929190614a87565b6020604051808303816000875af1925050508015612c9057506040513d601f19601f82011682018060405250810190612c8d9190614ae8565b60015b612d13573d8060008114612cc0576040519150601f19603f3d011682016040523d82523d6000602084013e612cc5565b606091505b50600081511415612d0b576040517f08c379a0000000000000000000000000000000000000000000000000000000008152600401612d02906147ae565b60405180910390fd5b805181602001fd5b63150b7a0260e01b7bffffffffffffffffffffffffffffffffffffffffffffffffffffffff1916817bffffffffffffffffffffffffffffffffffffffffffffffffffffffff191614915050612d68565b600190505b949350505050565b600080600090507a184f03e93ff9f4daa797ed6e38ed64bf6a1f0100000000000000008310612dce577a184f03e93ff9f4daa797ed6e38ed64bf6a1f0100000000000000008381612dc457612dc36147ce565b5b0492506040810190505b6d04ee2d6d415b85acef81000000008310612e0b576d04ee2d6d415b85acef81000000008381612e0157612e006147ce565b5b0492506020810190505b662386f26fc100008310612e3a57662386f26fc100008381612e3057612e2f6147ce565b5b0492506010810190505b6305f5e1008310612e63576305f5e1008381612e5957612e586147ce565b5b0492506008810190505b6127108310612e88576127108381612e7e57612e7d6147ce565b5b0492506004810190505b60648310612eab5760648381612ea157612ea06147ce565b5b0492506002810190505b600a8310612eba576001810190505b80915050919050565b612ecd8383612f41565b612eda6000848484612be8565b612f19576040517f08c379a0000000000000000000000000000000000000000000000000000000008152600401612f10906147ae565b60405180910390fd5b505050565b6000808273ffffffffffffffffffffffffffffffffffffffff163b119050919050565b600073ffffffffffffffffffffffffffffffffffffffff168273ffffffffffffffffffffffffffffffffffffffff161415612fb1576040517f08c379a0000000000000000000000000000000000000000000000000000000008152600401612fa890614b61565b60405180910390fd5b612fba81612a7b565b15612ffa576040517f08c379a0000000000000000000000000000000000000000000000000000000008152600401612ff190614bcd565b60405180910390fd5b613008600083836001612abc565b61301181612a7b565b15613051576040517f08c379a000000000000000000000000000000000000000000000000000000000815260040161304890614bcd565b60405180910390fd5b6001600360008473ffffffffffffffffffffffffffffffffffffffff1673ffffffffffffffffffffffffffffffffffffffff16815260200190815260200160002060008282540192505081905550816002600083815260200190815260200160002060006101000a81548173ffffffffffffffffffffffffffffffffffffffff021916908373ffffffffffffffffffffffffffffffffffffffff160217905550808273ffffffffffffffffffffffffffffffffffffffff16600073ffffffffffffffffffffffffffffffffffffffff167fddf252ad1be2c89b69c2b068fc378daa952ba7f163c4a11628f55a4df523b3ef60405160405180910390a461315b600083836001612be2565b5050565b82805461316b90613bfc565b90600052602060002090601f01602090048101928261318d57600085556131d4565b82601f106131a657803560ff19168380011785556131d4565b828001600101855582156131d4579182015b828111156131d35782358255916020019190600101906131b8565b5b5090506131e1919061326b565b5090565b8280546131f190613bfc565b90600052602060002090601f016020900481019282613213576000855561325a565b82601f1061322c57805160ff191683800117855561325a565b8280016001018555821561325a579182015b8281111561325957825182559160200191906001019061323e565b5b509050613267919061326b565b5090565b5b8082111561328457600081600090555060010161326c565b5090565b6000604051905090565b600080fd5b600080fd5b60007fffffffff0000000000000000000000000000000000000000000000000000000082169050919050565b6132d18161329c565b81146132dc57600080fd5b50565b6000813590506132ee816132c8565b92915050565b60006020828403121561330a57613309613292565b5b6000613318848285016132df565b91505092915050565b60008115159050919050565b61333681613321565b82525050565b6000602082019050613351600083018461332d565b92915050565b600081519050919050565b600082825260208201905092915050565b60005b83811015613391578082015181840152602081019050613376565b838111156133a0576000848401525b50505050565b6000601f19601f8301169050919050565b60006133c282613357565b6133cc8185613362565b93506133dc818560208601613373565b6133e5816133a6565b840191505092915050565b6000602082019050818103600083015261340a81846133b7565b905092915050565b6000819050919050565b61342581613412565b811461343057600080fd5b50565b6000813590506134428161341c565b92915050565b60006020828403121561345e5761345d613292565b5b600061346c84828501613433565b91505092915050565b600073ffffffffffffffffffffffffffffffffffffffff82169050919050565b60006134a082613475565b9050919050565b6134b081613495565b82525050565b60006020820190506134cb60008301846134a7565b92915050565b6134da81613495565b81146134e557600080fd5b50565b6000813590506134f7816134d1565b92915050565b6000806040838503121561351457613513613292565b5b6000613522858286016134e8565b925050602061353385828601613433565b9150509250929050565b600080fd5b600080fd5b600080fd5b60008083601f8401126135625761356161353d565b5b8235905067ffffffffffffffff81111561357f5761357e613542565b5b60208301915083600182028301111561359b5761359a613547565b5b9250929050565b600080602083850312156135b9576135b8613292565b5b600083013567ffffffffffffffff8111156135d7576135d6613297565b5b6135e38582860161354c565b92509250509250929050565b60008060006060848603121561360857613607613292565b5b6000613616868287016134e8565b9350506020613627868287016134e8565b925050604061363886828701613433565b9150509250925092565b600080fd5b7f4e487b7100000000000000000000000000000000000000000000000000000000600052604160045260246000fd5b61367f826133a6565b810181811067ffffffffffffffff8211171561369e5761369d613647565b5b80604052505050565b60006136b1613288565b90506136bd8282613676565b919050565b600067ffffffffffffffff8211156136dd576136dc613647565b5b6136e6826133a6565b9050602081019050919050565b82818337600083830152505050565b6000613715613710846136c2565b6136a7565b90508281526020810184848401111561373157613730613642565b5b61373c8482856136f3565b509392505050565b600082601f8301126137595761375861353d565b5b8135613769848260208601613702565b91505092915050565b60006020828403121561378857613787613292565b5b600082013567ffffffffffffffff8111156137a6576137a5613297565b5b6137b284828501613744565b91505092915050565b6000602082840312156137d1576137d0613292565b5b60006137df848285016134e8565b91505092915050565b6137f181613412565b82525050565b600060208201905061380c60008301846137e8565b92915050565b600061381d82613475565b9050919050565b61382d81613812565b82525050565b60006020820190506138486000830184613824565b92915050565b61385781613321565b811461386257600080fd5b50565b6000813590506138748161384e565b92915050565b6000806040838503121561389157613890613292565b5b600061389f858286016134e8565b92505060206138b085828601613865565b9150509250929050565b600067ffffffffffffffff8211156138d5576138d4613647565b5b6138de826133a6565b9050602081019050919050565b60006138fe6138f9846138ba565b6136a7565b90508281526020810184848401111561391a57613919613642565b5b6139258482856136f3565b509392505050565b600082601f8301126139425761394161353d565b5b81356139528482602086016138eb565b91505092915050565b6000806000806080858703121561397557613974613292565b5b6000613983878288016134e8565b9450506020613994878288016134e8565b93505060406139a587828801613433565b925050606085013567ffffffffffffffff8111156139c6576139c5613297565b5b6139d28782880161392d565b91505092959194509250565b600080600080604085870312156139f8576139f7613292565b5b600085013567ffffffffffffffff811115613a1657613a15613297565b5b613a228782880161354c565b9450945050602085013567ffffffffffffffff811115613a4557613a44613297565b5b613a518782880161354c565b925092505092959194509250565b60008060408385031215613a7657613a75613292565b5b6000613a84858286016134e8565b9250506020613a95858286016134e8565b9150509250929050565b600081519050919050565b600082825260208201905092915050565b6000819050602082019050919050565b600082825260208201905092915050565b6000613ae782613357565b613af18185613acb565b9350613b01818560208601613373565b613b0a816133a6565b840191505092915050565b6000613b218383613adc565b905092915050565b6000602082019050919050565b6000613b4182613a9f565b613b4b8185613aaa565b935083602082028501613b5d85613abb565b8060005b85811015613b995784840389528151613b7a8582613b15565b9450613b8583613b29565b925060208a01995050600181019050613b61565b50829750879550505050505092915050565b60006020820190508181036000830152613bc58184613b36565b905092915050565b7f4e487b7100000000000000000000000000000000000000000000000000000000600052602260045260246000fd5b60006002820490506001821680613c1457607f821691505b60208210811415613c2857613c27613bcd565b5b50919050565b7f4552433732313a20617070726f76616c20746f2063757272656e74206f776e6560008201527f7200000000000000000000000000000000000000000000000000000000000000602082015250565b6000613c8a602183613362565b9150613c9582613c2e565b604082019050919050565b60006020820190508181036000830152613cb981613c7d565b9050919050565b7f4552433732313a20617070726f76652063616c6c6572206973206e6f7420746f60008201527f6b656e206f776e6572206f7220617070726f76656420666f7220616c6c000000602082015250565b6000613d1c603d83613362565b9150613d2782613cc0565b604082019050919050565b60006020820190508181036000830152613d4b81613d0f565b9050919050565b600081905092915050565b6000613d698385613d52565b9350613d768385846136f3565b82840190509392505050565b6000613d8f828486613d5d565b91508190509392505050565b7f4552433732313a2063616c6c6572206973206e6f7420746f6b656e206f776e6560008201527f72206f7220617070726f76656400000000000000000000000000000000000000602082015250565b6000613df7602d83613362565b9150613e0282613d9b565b604082019050919050565b60006020820190508181036000830152613e2681613dea565b9050919050565b600081905092915050565b50565b6000613e48600083613e2d565b9150613e5382613e38565b600082019050919050565b6000613e6982613e3b565b9150819050919050565b7f4661696c656420746f207769746864726177204d617469630000000000000000600082015250565b6000613ea9601883613362565b9150613eb482613e73565b602082019050919050565b60006020820190508181036000830152613ed881613e9c565b9050919050565b7f4552433732313a20696e76616c696420746f6b656e2049440000000000000000600082015250565b6000613f15601883613362565b9150613f2082613edf565b602082019050919050565b60006020820190508181036000830152613f4481613f08565b9050919050565b7f4552433732313a2061646472657373207a65726f206973206e6f74206120766160008201527f6c6964206f776e65720000000000000000000000000000000000000000000000602082015250565b6000613fa7602983613362565b9150613fb282613f4b565b604082019050919050565b60006020820190508181036000830152613fd681613f9a565b9050919050565b6000613fe882613357565b613ff28185613d52565b9350614002818560208601613373565b80840191505092915050565b600061401a8285613fdd565b91506140268284613fdd565b91508190509392505050565b600061403e8385613362565b935061404b8385846136f3565b614054836133a6565b840190509392505050565b6000602082019050818103600083015261407a818486614032565b90509392505050565b7f4e6f7420656e6f756768204d6174696320706169640000000000000000000000600082015250565b60006140b9601583613362565b91506140c482614083565b602082019050919050565b600060208201905081810360008301526140e8816140ac565b9050919050565b7f2e00000000000000000000000000000000000000000000000000000000000000600082015250565b6000614125600183613d52565b9150614130826140ef565b600182019050919050565b60008190508160005260206000209050919050565b6000815461415d81613bfc565b6141678186613d52565b945060018216600081146141825760018114614193576141c6565b60ff198316865281860193506141c6565b61419c8561413b565b60005b838110156141be5781548189015260018201915060208101905061419f565b838801955050505b50505092915050565b60006141dc828587613d5d565b91506141e782614118565b91506141f38284614150565b9150819050949350505050565b600061420c8286614150565b91506142188285613fdd565b91506142248284614150565b9150819050949350505050565b7f7b226e616d65223a202200000000000000000000000000000000000000000000600082015250565b6000614267600a83613d52565b915061427282614231565b600a82019050919050565b7f222c20226465736372697074696f6e223a20224120646f6d61696e206f6e207460008201527f686520436c6f7564204e616d652053657276696365222c2022696d616765223a60208201527f2022646174613a696d6167652f7376672b786d6c3b6261736536342c00000000604082015250565b60006142ff605c83613d52565b915061430a8261427d565b605c82019050919050565b7f222c226c656e677468223a220000000000000000000000000000000000000000600082015250565b600061434b600c83613d52565b915061435682614315565b600c82019050919050565b7f227d000000000000000000000000000000000000000000000000000000000000600082015250565b6000614397600283613d52565b91506143a282614361565b600282019050919050565b60006143b88261425a565b91506143c48286613fdd565b91506143cf826142f2565b91506143db8285613fdd565b91506143e68261433e565b91506143f28284613fdd565b91506143fd8261438a565b9150819050949350505050565b7f646174613a6170706c69636174696f6e2f6a736f6e3b6261736536342c000000600082015250565b6000614440601d83613d52565b915061444b8261440a565b601d82019050919050565b600061446182614433565b915061446d8284613fdd565b915081905092915050565b7f4e487b7100000000000000000000000000000000000000000000000000000000600052603260045260246000fd5b7f4e487b7100000000000000000000000000000000000000000000000000000000600052601160045260246000fd5b60006144e182613412565b91507fffffffffffffffffffffffffffffffffffffffffffffffffffffffffffffffff821415614514576145136144a7565b5b600182019050919050565b6000604082019050818103600083015261453981856133b7565b9050818103602083015261454d81846133b7565b90509392505050565b7f4552433732313a207472616e736665722066726f6d20696e636f72726563742060008201527f6f776e6572000000000000000000000000000000000000000000000000000000602082015250565b60006145b2602583613362565b91506145bd82614556565b604082019050919050565b600060208201905081810360008301526145e1816145a5565b9050919050565b7f4552433732313a207472616e7366657220746f20746865207a65726f2061646460008201527f7265737300000000000000000000000000000000000000000000000000000000602082015250565b6000614644602483613362565b915061464f826145e8565b604082019050919050565b6000602082019050818103600083015261467381614637565b9050919050565b600061468582613412565b915061469083613412565b9250827fffffffffffffffffffffffffffffffffffffffffffffffffffffffffffffffff038211156146c5576146c46144a7565b5b828201905092915050565b7f4552433732313a20617070726f766520746f2063616c6c657200000000000000600082015250565b6000614706601983613362565b9150614711826146d0565b602082019050919050565b60006020820190508181036000830152614735816146f9565b9050919050565b7f4552433732313a207472616e7366657220746f206e6f6e20455243373231526560008201527f63656976657220696d706c656d656e7465720000000000000000000000000000602082015250565b6000614798603283613362565b91506147a38261473c565b604082019050919050565b600060208201905081810360008301526147c78161478b565b9050919050565b7f4e487b7100000000000000000000000000000000000000000000000000000000600052601260045260246000fd5b6000608082019050818103600083015261481781876133b7565b9050818103602083015261482b81866133b7565b9050818103604083015261483f81856133b7565b905061484e60608301846137e8565b95945050505050565b600061486282613412565b915061486d83613412565b92508261487d5761487c6147ce565b5b828204905092915050565b600061489382613412565b915061489e83613412565b9250817fffffffffffffffffffffffffffffffffffffffffffffffffffffffffffffffff04831182151516156148d7576148d66144a7565b5b828202905092915050565b7f45524337323155524953746f726167653a2055524920736574206f66206e6f6e60008201527f6578697374656e7420746f6b656e000000000000000000000000000000000000602082015250565b600061493e602e83613362565b9150614949826148e2565b604082019050919050565b6000602082019050818103600083015261496d81614931565b9050919050565b6000606082019050818103600083015261498e81866133b7565b905061499d60208301856134a7565b81810360408301526149af81846133b7565b9050949350505050565b600060608201905081810360008301526149d381866133b7565b90506149e260208301856137e8565b81810360408301526149f481846133b7565b9050949350505050565b6000614a0982613412565b9150614a1483613412565b925082821015614a2757614a266144a7565b5b828203905092915050565b600081519050919050565b600082825260208201905092915050565b6000614a5982614a32565b614a638185614a3d565b9350614a73818560208601613373565b614a7c816133a6565b840191505092915050565b6000608082019050614a9c60008301876134a7565b614aa960208301866134a7565b614ab660408301856137e8565b8181036060830152614ac88184614a4e565b905095945050505050565b600081519050614ae2816132c8565b92915050565b600060208284031215614afe57614afd613292565b5b6000614b0c84828501614ad3565b91505092915050565b7f4552433732313a206d696e7420746f20746865207a65726f2061646472657373600082015250565b6000614b4b602083613362565b9150614b5682614b15565b602082019050919050565b60006020820190508181036000830152614b7a81614b3e565b9050919050565b7f4552433732313a20746f6b656e20616c7265616479206d696e74656400000000600082015250565b6000614bb7601c83613362565b9150614bc282614b81565b602082019050919050565b60006020820190508181036000830152614be681614baa565b905091905056fe5265676973746572696e672025732e2573206f6e2074686520636f6e7472616374207769746820746f6b656e49442025644142434445464748494a4b4c4d4e4f505152535455565758595a6162636465666768696a6b6c6d6e6f707172737475767778797a303132333435363738392b2f25732068617320726567697374657265642074686520646f6d61696e2027257327a2646970667358221220da050939b1047924d46460196590f2181169e5a0f8e20fa79a6475e7da658d3764736f6c634300080a00333c73766720786d6c6e733d22687474703a2f2f7777772e77332e6f72672f323030302f737667222077696474683d2232373022206865696768743d22323730222066696c6c3d226e6f6e65223e3c706174682066696c6c3d2275726c282342292220643d224d302030683237307632373048307a222f3e3c646566733e3c66696c7465722069643d22412220636f6c6f722d696e746572706f6c6174696f6e2d66696c746572733d2273524742222066696c746572556e6974733d227573657253706163654f6e55736522206865696768743d22323730222077696474683d22323730223e3c666544726f70536861646f772064783d2230222064793d22312220737464446576696174696f6e3d22322220666c6f6f642d6f7061636974793d222e323235222077696474683d223230302522206865696768743d2232303025222f3e3c2f66696c7465723e3c2f646566733e3c7061746820643d224d37322e3836332034322e393439632d2e3636382d2e3338372d312e3432362d2e35392d322e3139372d2e3539732d312e3532392e3230342d322e3139372e35396c2d31302e30383120362e3033322d362e383520332e3933342d31302e30383120362e303332632d2e3636382e3338372d312e3432362e35392d322e3139372e3539732d312e3532392d2e3230342d322e3139372d2e35396c2d382e3031332d342e37323161342e353220342e35322030203020312d312e3538392d312e363136632d2e3338342d2e3636352d2e3539342d312e3431382d2e3630382d322e313837762d392e3331632d2e3031332d2e3737352e3138352d312e3533382e3537322d322e32303861342e323520342e323520302030203120312e3632352d312e3539356c372e3838342d342e3539632e3636382d2e33383720312e3432362d2e353920322e3139372d2e353973312e3532392e32303420322e3139372e35396c372e38383420342e353961342e353220342e353220302030203120312e35383920312e363136632e3338342e3636352e35393420312e3431382e36303820322e31383776362e3033326c362e38352d342e303635762d362e303332632e3031332d2e3737352d2e3138352d312e3533382d2e3537322d322e32303861342e323520342e32352030203020302d312e3632352d312e3539354c34312e3435362032342e3539632d2e3636382d2e3338372d312e3432362d2e35392d322e3139372d2e3539732d312e3532392e3230342d322e3139372e35396c2d31342e38363420382e36353561342e323520342e32352030203020302d312e36323520312e353935632d2e3338372e36372d2e35383520312e3433342d2e35373220322e3230387631372e343431632d2e3031332e3737352e31383520312e3533382e35373220322e32303861342e323520342e323520302030203020312e36323520312e3539356c31342e38363420382e363535632e3636382e33383720312e3432362e353920322e3139372e353973312e3532392d2e32303420322e3139372d2e35396c31302e3038312d352e39303120362e38352d342e3036352031302e3038312d352e393031632e3636382d2e33383720312e3432362d2e353920322e3139372d2e353973312e3532392e32303420322e3139372e35396c372e38383420342e353961342e353220342e353220302030203120312e35383920312e363136632e3338342e3636352e35393420312e3431382e36303820322e31383776392e333131632e3031332e3737352d2e31383520312e3533382d2e35373220322e32303861342e323520342e32352030203020312d312e36323520312e3539356c2d372e38383420342e373231632d2e3636382e3338372d312e3432362e35392d322e3139372e3539732d312e3532392d2e3230342d322e3139372d2e35396c2d372e3838342d342e353961342e353220342e35322030203020312d312e3538392d312e363136632d2e3338352d2e3636352d2e3539342d312e3431382d2e3630382d322e313837762d362e3033326c2d362e383520342e30363576362e303332632d2e3031332e3737352e31383520312e3533382e35373220322e32303861342e323520342e323520302030203020312e36323520312e3539356c31342e38363420382e363535632e3636382e33383720312e3432362e353920322e3139372e353973312e3532392d2e32303420322e3139372d2e35396c31342e3836342d382e363535632e3635372d2e33393420312e3230342d2e393520312e3538392d312e363136732e3539342d312e3431382e3630392d322e3138375635352e353338632e3031332d2e3737352d2e3138352d312e3533382d2e3537322d322e32303861342e323520342e32352030203020302d312e3632352d312e3539356c2d31342e3939332d382e3738367a222066696c6c3d2223666666222f3e3c646566733e3c6c696e6561724772616469656e742069643d2242222078313d2230222079313d2230222078323d22323730222079323d2232373022206772616469656e74556e6974733d227573657253706163654f6e557365223e3c73746f702073746f702d636f6c6f723d2223326165656663222f3e3c73746f70206f66667365743d2231222073746f702d636f6c6f723d2223326138356663222073746f702d6f7061636974793d222e3939222f3e3c2f6c696e6561724772616469656e743e3c2f646566733e3c7465787420783d2233322e352220793d223233312220666f6e742d73697a653d223237222066696c6c3d2223666666222066696c7465723d2275726c282341292220666f6e742d66616d696c793d22506c7573204a616b617274612053616e732c44656a6156752053616e732c4e6f746f20436f6c6f7220456d6f6a692c4170706c6520436f6c6f7220456d6f6a692c73616e732d73657269662220666f6e742d7765696768743d22626f6c64223e",
  "linkReferences": {},
  "deployedLinkReferences": {}
}